S00D000050524F4A312E73726563AB
S113000071C0000086C0000084C0000082C00000EF
S113001080C000007EC000007CC000007AC00000E8
S113002078C0000076C0000074C0000072C00000F8
S113003070C000006EC000006CC000006AC0000008
S113004068C0000066C0000064C0000062C0000018
S113005060C000005EC000005CC000005AC0000028
S113006058C0000056C0000054C0000052C0000038
S113007050C000004EC000004CC000004AC0000048
S113008048C0000046C0000044C0000042C0000058
S113009040C000003EC000003CC000003AC0000068
S11300A038C0000036C0000034C0000032C0000078
S11300B030C000002EC000002CC000002AC0000088
S11300C028C0000026C0000024C0000022C0000098
S11300D020C000001EC000001CC000001AC00000A8
S11300E018C0000011241FBECFEFD1E2DEBFCDBF88
S11300F000E00CBF12E0A0E0B2E0E6EAF2E000E0CB
S11301000BBF02C007900D92A231B107D9F702D0FC
S1130110C8C076CF80E884B917D0C0E011E0D0E041
S113012003C0CD2F01C0C12F54D08133D1F7C111E9
S1130130FACF85B1805885B9C12FF6CFA89BFECFE1
S11301408FE186BDA89A089514BC84E085BD8FE133
S113015086BDE7E0F1E080818F70808380818F60CD
S11301608083E8E0F1E080818F608083E6E0F1E065
S113017080818F6080830895FF920F931F93CF93A4
S1130180DF938C5F91E0F92E01C0FF0C8A95EAF7AA
S1130190D0E0C0E006E011E0D1DFF80190819F21BA
S11301A0D91302C0CF5F01C0C0E0D92F2C2F30E09B
S11301B040910002509101022417350769F781E04C
S11301C0911101C080E0DF91CF911F910F91FF90B9
S11301D00895AF92BF92CF92DF92EF92FF920F9366
S11301E01F93CF93DF93CDB7DEB760970FB6F89424
S11301F0DEBF0FBECDBF80E1E2E0F2E0DE0111968A
S113020001900D928A95E1F7E12CF12C6894CC24AD
S1130210C3F8DD24D394AA24A394B12CF6018081DD
S11302208F608083908195010E2C02C0220F331FB2
S11302300A94E2F7822F80958923808300E010E0FE
S1130240802F9ADF81110FC0EE0CFF1CEE0CFF1CF7
S113025081E090E08C0F9D1FE80EF91EF701E00F7E
S1130260F11F80810DC00F5F1F4F0330110541F74F
S11302709FEFE91AF90AE4E0EE16F10479F680E05A
S113028060960FB6F894DEBF0FBECDBFDF91CF915D
S11302901F910F91FF90EF90DF90CF90BF90AF90A0
S10902A00895F894FFCF5D
S11302A608003132334134353642373839432A303F
S10502B62344DB
S9030000FC
