:1000000071C000008EC000008CC000008AC00000DB
:1000100088C0000086C0000084C0000082C00000CC
:1000200080C000007EC000007CC000007AC00000DC
:1000300078C0000076C0000074C0000072C00000EC
:1000400070C000006EC000006CC000006AC00000FC
:1000500080C1000066C0000064C0000062C00000F3
:1000600060C000005EC000005CC000005AC000001C
:1000700058C0000056C0000054C0000052C000002C
:1000800050C000004EC000004CC000004AC000003C
:1000900048C0000046C0000044C0000042C000004C
:1000A00040C000003EC000003CC000003AC000005C
:1000B00038C0000036C0000034C0000032C000006C
:1000C00030C000002EC000002CC000002AC000007C
:1000D00028C0000026C0000024C0000022C000008C
:1000E00020C0000011241FBECFEFD1E2DEBFCDBF84
:1000F00000E00CBF12E0A0E0B2E0E6E8F4E000E0CF
:100100000BBF02C007900D92A231B107D9F722E0D0
:10011000A2E1B2E001C01D92AC31B207E1F748D0D4
:10012000B0C16ECF0F931F9380911B028333A9F54B
:100130008091120290911302A0911402B0911502C5
:10014000892B8A2B8B2B49F429D16093120270934F
:100150001302809314029093150220D10091120291
:10016000109113022091140230911502DC01CB0191
:10017000801B910BA20BB30B883B9B40A105B105E3
:10018000A0F081E0809316021092120210921302E6
:10019000109214021092150208C0109212021092CE
:1001A000130210921402109215021F910F910895DC
:1001B00015D0C1D058D080931B028091160288239D
:1001C00019F0853018F4F6CFADDFF4CFABDFF2CF06
:1001D000A89BFECF8FE186BDA89A089514BC84E049
:1001E00085BD8FE186BDE7E0F1E080818F7080837F
:1001F00080818F608083E8E0F1E080818F60808380
:10020000E6E0F1E080818F6080830895FF920F9394
:100210001F93CF93DF938C5F91E0F92E01C0FF0C09
:100220008A95EAF7D0E0C0E006E011E0D1DFF801FE
:1002300090819F21D91302C0CF5F01C0C0E0D92FA8
:100240002C2F30E040910002509101022417350715
:1002500069F781E0911101C080E0DF91CF911F919A
:100260000F91FF900895AF92BF92CF92DF92EF92DD
:10027000FF920F931F93CF93DF93CDB7DEB76097B5
:100280000FB6F894DEBF0FBECDBF80E1E2E0F2E032
:10029000DE01119601900D928A95E1F7E12CF12C87
:1002A0006894CC24C3F8DD24D394AA24A394B12C5D
:1002B000F60180818F608083908195010E2C02C0B1
:1002C000220F331F0A94E2F7822F809589238083BF
:1002D00000E010E0802F9ADF81110FC0EE0CFF1CB0
:1002E000EE0CFF1C81E090E08C0F9D1FE80EF91EC4
:1002F000F701E00FF11F80810DC00F5F1F4F03302A
:10030000110541F79FEFE91AF90AE4E0EE16F1044E
:1003100079F680E060960FB6F894DEBF0FBECDBFD1
:10032000DF91CF911F910F91FF90EF90DF90CF90D1
:10033000BF90AF9008951092800084E08093810078
:10034000109285001092840081E080936F00789471
:1003500008951F920F920FB60F9211248F939F93BF
:10036000AF93BF938091170290911802A091190248
:10037000B0911A020196A11DB11D809317029093AE
:100380001802A0931902B0931A02BF91AF919F91E6
:100390008F910F900FBE0F901F9018950F931F9382
:1003A0006FB7F8940091170210911802209119026A
:1003B00030911A0280918400909185006FBFB8013E
:1003C000552744279A01AB01280F391F411D511DA4
:1003D00060E078EE83E090E00AD020E034E244EF81
:1003E00050E014D0CA01B9011F910F910895DB01AB
:1003F0008F939F932DD0BF91AF91A29F800D911DA0
:10040000A39F900DB29F900D11240895A1E21A2E82
:10041000AA1BBB1BFD010DC0AA1FBB1FEE1FFF1FA8
:10042000A217B307E407F50720F0A21BB30BE40BF8
:10043000F50B661F771F881F991F1A9469F760953F
:100440007095809590959B01AC01BD01CF010895F9
:1004500009D0A59F900DB49F900DA49F800D911D74
:1004600011240895A29FB001B39FC001A39F700DF6
:10047000811D1124911DB29F700D811D1124911DAC
:060480000895F894FFCF7F
:1004860008003132334134353642373839432A3061
:020496002344FD
:00000001FF
