S01200006D6963726F5F756265722E73726563EB
S113000080C000009FC000009DC000009BC0000095
S113001099C0000097C0000095C0000093C0000084
S113002091C000008FC000008DC000008BC0000094
S113003089C0000087C0000085C000000C94D60A67
S113004081C000007FC000007DC000007BC00000B4
S113005079C0000077C0000075C0000073C00000C4
S113006071C000001BC600006DC000006BC0000022
S113007069C0000067C0000065C0000063C00000E4
S113008061C000005FC000005DC000005BC00000F4
S113009059C0000057C0000055C0000053C0000004
S11300A051C000004FC000004DC000004BC0000014
S11300B049C0000047C0000045C0000043C0000024
S11300C041C000003FC000003DC000003BC0000034
S11300D039C0000037C0000035C0000033C0000044
S11300E031C0000047037703A703D703070437048D
S11300F06704970470067706CB06E906070710071E
S1130100280711241FBECFEFD1E2DEBFCDBF00E030
S11301100CBF13E0A0E0B2E0E6EFF0E200E00BBFBA
S113012002C007900D92A237B107D9F723E0A2E7E6
S1130130B3E001C01D92A33DB207E1F70E94BE09DE
S11301400C9479105DCF2F923F924F925F926F92F1
S11301507F928F929F92AF92BF92CF92DF92EF9253
S1130160FF920F931F93CF93DF93CDB7DEB72A97F8
S11301700FB6F894DEBF0FBECDBF1C013B01E0E01B
S1130180F2E080819181B101681B790B072E000C8C
S1130190880B990B0E941F0C6B017C018091020259
S11301A090910302B301681B790B072E000C880B96
S11301B0990B0E941F0C4B015C019B01AC010E9436
S11301C0D30C69837A838B839C83A5019401C50135
S11301D0B4010E94D30C4B015C01A7019601C70135
S11301E0B6010E94D30C9B01AC01C501B4010E946D
S11301F04D0B0E943A0D6D837E83482E592E80E06C
S113020092E001E010E01F8218869A878987E985C9
S1130210FA8584819581B101681B790B072E000C46
S1130220880B990B0E941F0C6B017C01E985FA85F0
S113023086819781B301681B790B072E000C880B0C
S1130240990B0E941F0C4B015C019B01AC010E94A5
S1130250D30C69837A838B839C83A5019401C501A4
S1130260B4010E94D30C4B015C01A7019601C701A4
S1130270B6010E94D30C9B01AC01C501B4010E94DC
S11302804D0B0E943A0DC62ED72EE82EF92E2D8145
S11302903E81442D552D0E94B10B882334F4CD8228
S11302A0DE824E2C5F2C0F8318870F5F1F4F8985CA
S11302B09A8504969A8789870930110509F0A7CF92
S11302C08F8198852A960FB6F894DEBF0FBECDBFF6
S11302D0DF91CF911F910F91FF90EF90DF90CF901E
S11302E0BF90AF909F908F907F906F905F904F9052
S11302F03F902F9008958093C600E0ECF0E0808159
S113030086FFFDCFE0ECF0E0808180648083609321
S1130310C600808186FFFDCFE0ECF0E08081806440
S1130320808308958093C600E0ECF0E0808186FF2E
S1130330FDCFE0ECF0E08081806480836093C600B0
S1130340808186FFFDCFE0ECF0E0808180648083D3
S11303504093C600808186FFFDCFE0ECF0E0808111
S113036080648083089595E59093C600E0ECF0E006
S1130370908196FFFDCFE0ECF0E090819064908353
S11303809DE49093C600908196FFFDCFE0ECF0E0F1
S11303909081906490838093C600808186FFFDCF16
S11303A0E0ECF0E080818064808308951092C500C1
S11303B083E38093C40088E98093C10086E080933E
S11303C0C2000895EDEBF3E0808190E0982F882738
S11303D02181822B9093A6038093A503E0EDF3E0A3
S11303E0208130E0322F22274181242B3093A40333
S11303F02093A303EAECF3E0408150E0542F442718
S11304006181462B5093A2034093A103E8ECF3E0EF
S1130410608170E0762F6627E1816E2B7093A003D4
S113042060939F03A4ECB3E0EC91F0E0FE2FEE2781
S11304301196AC91EA2BF0939E03E0939D03A9EBF4
S1130440B3E0EC91F0E0FE2FEE271196AC91EA2B8D
S1130450F0939C03E0939B03841B950B81359105DA
S1130460D8F4261B370B21353105B0F480912802CE
S113047090912902892B81F04091A80369E485E5D4
S113048051DF81E090E09093810380938003109288
S113049029021092280267DF8091A5039091A60398
S11304A020919D0330919E03821B930B8536910509
S11304B018F58091A3039091A40320919B0330919C
S11304C09C03821B930B85369105B0F480917E03C7
S11304D090917F03892B81F04091A80366E485E520
S11304E021DF10927F0310927E0381E090E09093CD
S11304F07D0380937C0337CF0895CF93DF9362DF2E
S1130500C091A503D091A6036091A3037091A403A5
S1130510CE0119DE90939A0380939903FC01EE0FA8
S1130520FF1FEE0FFF1FE050FE4F40815181BA01C3
S11305306C1B7D0B9B0122F422273327261B370BD0
S1130540309398032093970350939203409391031D
S1130550880F991F880F991FFC01E050FE4F82817C
S113056093819093900380938F03C091A103D091C2
S1130570A20360919F037091A003CE01E4DD9093E8
S11305809A0380939903FC01EE0FFF1FEE0FFF1FE8
S1130590E050FE4F40815181BA016C1B7D0B9B01E1
S11305A022F422273327261B370B309396032093FC
S11305B0950350938E0340938D03880F991F880FE2
S11305C0991FFC01E050FE4F8281938190938C032C
S11305D080938B03C0919D03D0919E0360919B03F4
S11305E070919C03CE01AFDD90939A03809399039D
S11305F0FC01EE0FFF1FEE0FFF1FE050FE4F408186
S11306005181BA016C1B7D0B9B0122F422273327F5
S1130610261B370B309394032093930350938A0340
S113062040938903880F991F880F991FFC01E0509C
S1130630FE4F828193819093880380938703DF9197
S1130640CF9108950F931F93CF93DF9300D01F9200
S11306501F92CDB7DEB78B0181E090E09093CF037A
S11306608093CE03AFDE49DF012B09F48FC1E09103
S11306702A028E2F90E0FC013197E830F10508F052
S113068085C18827EE58FF4F8F4F0C948D0D49D5A7
S11306908CE492E01FD580ECF9D420918B03309147
S11306A08C038091A3039091A403281B390BC901E7
S11306B0992324F488279927821B930B9F938F9364
S11306C08BE592E09F938F938E010F5F1F4F1F93D3
S11306D00F930E949E0DC801FDD48EE592E0FAD4DA
S11306E00F900F900F900F900F900F904FC119D54E
S11306F08CE492E0EFD480ECC9D420918D03309146
S11307008E038091A5039091A603281B390BC90180
S1130710992324F488279927821B930B9F938F9303
S11307208BE592E09F938F938E010F5F1F4F1F9372
S11307300F930E949E0DC801CDD48EE592E0CAD4D9
S11307400F900F900F900F900F900F901FC1E9D44E
S11307508CE492E0BFD480EC99D42091870330914B
S113076088038091A3039091A403281B390BC9012A
S1130770992324F488279927821B930B9F938F93A3
S11307808BE592E09F938F938E010F5F1F4F1F9312
S11307900F930E949E0DC8019DD48EE592E09AD4D9
S11307A00F900F900F900F900F900F90EFC0B9D44F
S11307B08CE492E08FD480EC69D420918903309149
S11307C08A038091A5039091A603281B390BC901C4
S11307D0992324F488279927821B930B9F938F9343
S11307E08BE592E09F938F938E010F5F1F4F1F93B2
S11307F00F930E949E0DC8016DD48EE592E06AD4D9
S11308000F900F900F900F900F900F90BFC089D44E
S11308108CE492E05FD480EC39D420919D03309134
S11308209E038091A5039091A603281B390BC9014F
S1130830992324F488279927821B930B9F938F93E2
S11308408BE592E09F938F938E010F5F1F4F1F9351
S11308500F930E949E0DC8013DD48EE592E03AD4D8
S11308600F900F900F900F900F900F908FC059D44E
S11308708CE492E02FD480EC09D420919B03309136
S11308809C038091A3039091A403281B390BC901F5
S1130890992324F488279927821B930B9F938F9382
S11308A08BE592E09F938F938E010F5F1F4F1F93F1
S11308B00F930E949E0DC8010DD48EE592E00AD4D8
S11308C00F900F900F900F900F900F905FC029D44E
S11308D08CE492E0FFD380ECD9D32091A103309132
S11308E0A2038091A5039091A603281B390BC9018B
S11308F0992324F488279927821B930B9F938F9322
S11309008BE592E09F938F938E010F5F1F4F1F9390
S11309100F930E949E0DC801DDD38EE592E0DAD3D9
S11309200F900F900F900F900F900F902FC0F9D34E
S11309308CE492E0CFD380ECA9D320919F03309133
S1130940A0038091A3039091A403281B390BC90130
S1130950992324F488279927821B930B9F938F93C1
S11309608BE592E09F938F938E010F5F1F4F1F9330
S11309700F930E949E0DC801ADD38EE592E0AAD3D9
S11309800F900F900F900F900F900F902091A30352
S11309903091A40380918B0390918C03821B930B61
S11309A0823E4FEF9407A4F14F9794F58091800312
S11309B090918103892B61F58091A5039091A60301
S11309C04091A1035091A203841B950BAC0122F426
S11309D044275527481B590B42335105CCF087E077
S11309E080932A029ED32091A1033091A203809187
S11309F0A5039091A6032817390720F480E692E016
S1130A0069D303C080E792E065D382E0AED5C0C06D
S1130A108091870390918803821B930B823E4FEF52
S1130A209407A4F14F9794F580917E0390917F03EE
S1130A30892B61F18091A5039091A60340919D03B8
S1130A4050919E03841B950BAC0122F44427552737
S1130A50481B590B42335105CCF085E080932A02A0
S1130A6060D320919D0330919E038091A5039091C2
S1130A70A6032817390720F480E692E02BD303C09D
S1130A8080E792E027D382E070D582C08091890309
S1130A9090918A034091A5035091A603841B950B62
S1130AA0823E4FEF94079CF18F31910584F580913C
S1130AB07E0390917F03892B09F46AC080919B0384
S1130AC090919C03281B390BC901992324F488278E
S1130AD09927821B930BC2970CF45AC086E080932B
S1130AE02A021FD320919B0330919C038091A3037E
S1130AF09091A4038217930720F480E692E0EAD24F
S1130B0003C080E792E0E6D282E02FD541C0AC0179
S1130B10992324F444275527481B590B4233510584
S1130B20BCF180917E0390917F03892B89F18091A0
S1130B309B0390919C03281B390BC901992324F42E
S1130B4088279927821B930BC29714F183E0809323
S1130B502A028091260290912702892BC9F01092D3
S1130B60270210922602DDD220919B0330919C0330
S1130B708091A3039091A4038217930720F480E645
S1130B8092E0A8D203C080E792E0A4D282E0EDD440
S1130B908091800390918103892B71F010928103DD
S1130BA010928003BED28FE792E094D281E090E06D
S1130BB0DADB81E0DAD40EC080917C0390917D036E
S1130BC0892B41F010927D0310927C03AAD280E914
S1130BD092E080D20F900F900F900F900F90DF91C2
S1130BE0CF911F910F910895809174039091750393
S1130BF0892BA1F0109275031092740392D281EAAA
S1130C0092E068D2DFDB81E0B0D460919F03709101
S1130C10A0038091A3039091A40314CD089580911F
S1130C20740390917503892B21F07BD282EB92E0BF
S1130C3051C20895CF93DF9365E485E55CDB71D2FF
S1130C408EEB92E047D280EC21D28CEC92E042D23F
S1130C50C1E0D0E019C0F2D390E09093CD0380932B
S1130C60CC038133910551F44091A80361E485E5F7
S1130C7059DBD0937503C093740306C0C29721F463
S1130C8050D28DED92E026D28091CC039091CD0389
S1130C90C197029700F7DF91CF9108951F920F92A9
S1130CA00FB60F9211240BB60F922F933F934F93CD
S1130CB05F936F937F938F939F93AF93BF93EF93C0
S1130CC0FF932091C6008091860390E087309105C0
S1130CD008F0D5C0FC018827E658FF4F8F4F1DC789
S1130CE0233509F0CEC081E080938603CAC0203545
S1130CF051F410927B0310927A0382E0809386036E
S1130D0010928503BEC0283431F483E080938603B7
S1130D1010928403B6C0253441F484E080938603A2
S1130D201092830310928203ACC0213421F41092F8
S1130D3086035ADFA6C02E3421F4109286036FDF97
S1130D40A0C02D3449F41092860381E090E0909382
S1130D5073038093720395C0293449F41092860377
S1130D6081E090E090937F0380937E038AC02634D1
S1130D7079F481E090E090937B0380937A039093DD
S1130D80290280932802909327028093260279C037
S1130D901092860376C080918503823030F4E82F68
S1130DA0F0E0E354FC4F208305C0E82FF0E0E25369
S1130DB0FC4F20838F5F80938503843008F461C0E7
S1130DC081E090E0909379038093780310928603F6
S1130DD058C080918403823030F4E82FF0E0EA5365
S1130DE0FC4F208305C0E82FF0E0E754FC4F20833C
S1130DF08F5F80938403843008F443C081E090E0E3
S1130E009093770380937603109286033AC081E02F
S1130E108093A7032093A80385E08093860331C0C1
S1130E2080918203823030F4E82FF0E0EC53FC4FE1
S1130E30208305C0E82FF0E0E954FC4F20838F5F46
S1130E40809382038430E8F086E08093860319C09F
S1130E5080918303823030F4E82FF0E0E653FC4FB6
S1130E60208305C0E82FF0E0EA53FC4F20838F5F16
S1130E7080938303843028F01092860302C010927A
S1130E808603FF91EF91BF91AF919F918F917F91D5
S1130E906F915F914F913F912F910F900BBE0F90E7
S1130EA00FBE0F901F901895CF93DF93CDB7DEB789
S1130EB02A970FB6F894DEBF0FBECDBF77DA0F2E98
S1130EC0F6ECAF2EF3E0BF2EF02D0BE512E0CE01D1
S1130ED001967C010F2EFBEBCF2EF3E0DF2EF02DDD
S1130EE0882E9F2C8091A703882319F01092A703C2
S1130EF0A1DE8091780390917903892BC1F110923E
S1130F0079031092780360E585E5F5D95BDA809181
S1130F10800390918103892B79F480917A039091D5
S1130F207B03892B49F460919F037091A003809106
S1130F30A3039091A40386DB809128029091290257
S1130F40892BA9F480917C0390917D03892B79F4FA
S1130F5080917A0390917B03892B49F460919B03E0
S1130F6070919C038091A3039091A4036BDB809107
S1130F70760390917703892B09F447C01092770385
S1130F801092760368E485E5B6D980EC7FD0F5014C
S1130F9080811F928F931F930F93FF92EF92CED570
S1130FA0882D992D97D08EEE92E094D0F501818111
S1130FB01F928F931F930F93FF92EF92BFD5882DAB
S1130FC0992D88D080EF92E085D0F60180811F9220
S1130FD08F931F930F93FF92EF92B0D5882D992D85
S1130FE079D082E093E076D0F60181811F928F93CD
S1130FF01F930F93FF92EF92A1D5882D992D6AD05C
S11310000FB6F894DEBF0FBECDBF18D290E0909318
S1131010CD038093CC038091CE039091CF03892B91
S113102009F460CF0BD2282F30E03093CD03209306
S1131030CC03843309F118F4823331F053CF853370
S113104069F0863379F04ECF82E090E08CD981E06C
S113105090E0909325028093240244CF81E090E0B5
S113106082D940CF83E090E07ED983E090E09093F2
S113107025028093240236CF84E090E074D984E082
S113108090E090932502809324022CCF82B98A9811
S113109089988B9A81E045D28B9883E054C2089555
S11310A082B98A9A89988B9A81E03BD28B9881E0A5
S11310B04AC208958FEF80BB81B984E144D288E3AA
S11310C0E5DF8CE0E3DF86E0E1DF81E0DFDF80E87D
S11310D0DDCF0895CF93DF93EC018881882329F035
S11310E02196DEDF89918111FCCFDF91CF910895A4
S11310F0CF93DF93EA01811107C0603168F4862F32
S11311008F708068C3DF08C0813031F4603120F40F
S1131110862F8F70806CBADFCE01DCDFDF91CF9138
S1131120089581E0B3DF80E8B1CF08958091D203C0
S11311308332A1F520E030E0A9016091AF03709102
S1131140B0038091B1039091B2030BD3811109C014
S113115068D26093AF037093B0038093B10390930C
S1131160B2035FD22091AF033091B0034091B10339
S11311705091B20391D220E030E84BE355E40FD410
S11311808823A4F081E08093B4031092AF031092FB
S1131190B0031092B1031092B20308951092AF03FA
S11311A01092B0031092B1031092B2030895CF933A
S11311B0DF93B7DF84EF92E08DDF8091AD039091F0
S11311C0AE03181619067CF4C0E0D0E044E053E006
S11311D06C2F81E08DDF21968091AD039091AE0359
S11311E0C817D9079CF32091D203263691F02332F5
S11311F081F02A3271F0843091055CF4FC01EB5CDF
S1131200FD4F208301969093AE038093AD0384E653
S11312109AD18091AD039091AE0304970CF462C00F
S113122080DF60E372E085E392E07FD4892B49F4A8
S113123081E08093B30386E093E04CDF88EB83D1B5
S11312402AC06BE272E085E392E06FD4892B49F403
S113125082E08093B30381E193E03CDF88EB73D1B8
S11312601AC05FDF8CE193E035DF80ED6CD159DF8C
S11312708CE293E02FDF80ED66D153DF1092AE0352
S11312801092AD03E5E3F2E086E4808381838283F8
S11312908383148227C045DF8CE393E01BDF8CED4E
S11312A052D13FDF8AE493E015DF8CED4CD139DF76
S11312B087E593E00FDF8CED46D133DF8091B303F4
S11312C0813031F486E093E005DF8CED3CD107C03A
S11312D0823029F481E193E0FDDE8CED34D182E0AB
S11312E08093B403DF91CF9108958091D2038A3221
S11312F009F03BC020E030E0A9016091A90370919E
S1131300AA038091AB039091AC032BD2811109C045
S113131088D16093A9037093AA038093AB0390933D
S1131320AC037FD12091A9033091AA034091AB0370
S11313305091AC03B1D120E030E04AE755E42FD31B
S11313408823DCF044E653E060E081E0D1DE80ED08
S1131350FAD0E7DE1092B4031092A9031092AA0304
S11313601092AB031092AC0308951092A90310924B
S1131370AA031092AB031092AC0308951AD00AD1B9
S113138099DE5CD08093D203B0DF8091B4038130C6
S113139031F018F0823029F0F4CFC8DEF2CF07DF45
S11313A0F0CF82CD0895A89BFECF8FE186BDA89A89
S11313B0089514BC84E085BD8FE186BDE7E0F1E0CB
S11313C080818F70808380818F608083E8E0F1E08A
S11313D080818F608083E6E0F1E080818F6080838C
S11313E00895FF920F931F93CF93DF938C5F91E047
S11313F0F92E01C0FF0C8A95EAF7D0E0C0E006E0C0
S113140011E0D1DFF80190819F21D91302C0CF5F91
S113141001C0C0E0D92F2C2F30E040913A02509106
S11314203B022417350769F781E0911101C080E080
S1131430DF91CF911F910F91FF900895AF92BF92CA
S1131440CF92DF92EF92FF920F931F93CF93DF938C
S1131450CDB7DEB760970FB6F894DEBF0FBECDBF31
S113146080E1ECE3F2E0DE01119601900D928A95A1
S1131470E1F7E12CF12C6894CC24C3F8DD24D39457
S1131480AA24A394B12CF60180818F60808390817B
S113149095010E2C02C0220F331F0A94E2F7822F0B
S11314A080958923808300E010E0802F9ADF8111EA
S11314B00FC0EE0CFF1CEE0CFF1C81E090E08C0FC3
S11314C09D1FE80EF91EF701E00FF11F80810DC08A
S11314D00F5F1F4F0330110541F79FEFE91AF90A17
S11314E0E4E0EE16F10479F686E660960FB6F89419
S11314F0DEBF0FBECDBFDF91CF911F910F91FF9043
S1131500EF90DF90CF90BF90AF900895109280003D
S113151080938100109285001092840082E086BB43
S11315200895CF93C82F8AE0F1DF8C2F90E0880FC5
S1131530991F9093890080938800B19BFECF82E02D
S113154086BBCF910895CF93C82F8CE0DFDF2FE3C4
S1131550C29FC00111249093890080938800B19B9D
S1131560FECF82E086BBCF910895CF93C82F8DE044
S1131570CDDF29E03DE3C29FC001C39F900D11243C
S11315809093890080938800B19BFECF82E086BB54
S1131590CF9108951092B00084E08093B10010922E
S11315A0B20081E080937000789408951F920F92A6
S11315B00FB60F9211240BB60F922F933F934F93B4
S11315C05F936F937F938F939F93AF93BF93EF93A7
S11315D0FF936091B5037091B6038091B703909126
S11315E0B80320E030E040E85FE357D06093B503F0
S11315F07093B6038093B7039093B803FF91EF9170
S1131600BF91AF919F918F917F916F915F914F9116
S11316103F912F910F900BBE0F900FBE0F901F9014
S11316201895CF92DF92EF92FF92CF93DF932FB76B
S1131630F8946091B5037091B6038091B7039091CB
S1131640B803C0918400D09185002FBF20E030E022
S113165040E857E4A8D16B017C01BE0180E090E032
S1131660ECD09B01AC01C701B60117D020E030E0FB
S11316704AE754E498D120E030E040E853E493D1C1
S113168020E034E244E75BE470D0DF91CF91FF9037
S1131690EF90DF90CF9008955058BB27AA270ED023
S11316A044C135D130F03AD120F031F49F3F11F4E8
S11316B01EF42AC10EF4E095E7FB20C1E92F46D1C0
S11316C080F3BA17620773078407950718F071F45B
S11316D09EF55EC10EF4E0950B2EBA2FA02D0B01E2
S11316E0B90190010C01CA01A0011124FF27591B63
S11316F099F0593F50F4503E68F11A16F040A22F69
S1131700232F342F4427585FF3CF469537952795D9
S1131710A795F0405395C9F77EF41F16BA0B620BD8
S1131720730B840BBAF09150A1F0FF0FBB1F661F1F
S1131730771F881FC2F70EC0BA0F621F731F841F62
S113174048F4879577956795B795F7959E3F08F088
S1131750B3CF9395880F08F09927EE0F9795879547
S11317600895A8D008F481E008950CD0DEC0D6D046
S113177040F0CDD030F021F45F3F19F0BFC05111DB
S113178008C1C2C0E3D098F39923C9F35523B1F338
S1131790951B550BBB27AA2762177307840738F0DC
S11317A09F5F5F4F220F331F441FAA1FA9F333D03B
S11317B00E2E3AF0E0E830D091505040E695001CEF
S11317C0CAF729D0FE2F27D0660F771F881FBB1FAB
S11317D0261737074807AB07B0E809F0BB0B802D85
S11317E0BF01FF2793585F4F2AF09E3F510568F0D1
S11317F085C0CFC05F3FECF3983EDCF386957795C8
S11318006795B795F7959F5FC9F7880F911D9695D2
S1131810879597F90895E1E0660F771F881FBB1F2E
S1131820621773078407BA0720F0621B730B840BDB
S1131830BA0BEE1F88F7E0950895E89409C097FB6A
S11318403EF490958095709561957F4F8F4F9F4F93
S11318509923A9F0F92F96E9BB279395F6958795D7
S113186077956795B795F111F8CFFAF4BB0F11F49A
S113187060FF1BC06F5F7F4F8F4F9F4F16C0882341
S113188011F096E911C0772321F09EE8872F762F77
S113189005C0662371F096E8862F70E060E02AF0B8
S11318A09A95660F771F881FDAF7880F96958795A4
S11318B097F90895990F0008550FAA0BE0E8FEEF79
S11318C016161706E807F907C0F012161306E40700
S11318D0F50798F0621B730B840B950B39F40A26F9
S11318E061F0232B242B252B21F408950A2609F4D7
S11318F0A140A6958FEF811D811D089597F99F67DB
S113190080E870E060E008959FEF80EC0895002483
S11319100A941616170618060906089500240A9450
S113192012161306140605060895092E0394000CD6
S113193011F4882352F0BB0F40F4BF2B11F460FF65
S113194004C06F5F7F4F8F4F9F4F089557FD90588E
S1131950440F551F59F05F3F71F04795880F97FB6F
S1131960991F61F09F3F79F0879508951216130629
S11319701406551FF2CF4695F1DF08C01616170658
S11319801806991FF1CF869571056105089408958D
S1131990E894BB2766277727CB0197F908958ADF58
S11319A008F48FEF08950BD0C0CFB1DF28F0B6DF75
S11319B018F0952309F0A2CFA7CF1124EACFC6DFF0
S11319C0A0F3959FD1F3950F50E0551F629FF0014E
S11319D0729FBB27F00DB11D639FAA27F00DB11DA7
S11319E0AA1F649F6627B00DA11D661F829F222730
S11319F0B00DA11D621F739FB00DA11D621F839FB7
S1131A00A00D611D221F749F3327A00D611D231F8C
S1131A10849F600D211D822F762F6A2F11249F57DA
S1131A2050408AF0E1F088234AF0EE0FFF1FBB1FFD
S1131A30661F771F881F91505040A9F79E3F51059C
S1131A4070F05CCFA6CF5F3FECF3983EDCF3869555
S1131A5077956795B795F795E7959F5FC1F7FE2B47
S1131A60880F911D9695879597F9089511F40EF4B2
S1131A704BCF3EC073DFD0F39923D9F3CEF39F57F6
S1131A80550B87FF43D00024A0E640EA900180581C
S1131A905695979528F4805C660F771F881F20F071
S1131AA026173707480730F4621B730B840B202971
S1131AB031294A2BA69517940794202531254A27C6
S1131AC058F7660F771F881F20F026173707480737
S1131AD030F4620B730B840B200D311D411DA09556
S1131AE081F7B901842F9158880F969587950895A9
S1131AF09F3F31F0915020F4879577956795B7957E
S1131B00880F911D9695879597F9089591505040A7
S1131B10660F771F881FD2F70895EE0FFF1F881FE7
S1131B208BBF0790F691E02D1994FB01DC018D9198
S1131B30019080190110D9F3990B08950F931F9305
S1131B40CF93DF93CDB7DEB72E970FB6F894DEBFF1
S1131B500FBECDBF0E891F8986E08C831A8309834B
S1131B608FEF9FE79E838D83AE01465E5F4F688D46
S1131B70798DCE01019610D0EF81F885E00FF11F29
S1131B8010822E960FB6F894DEBF0FBECDBFDF9144
S1131B90CF911F910F9108952F923F924F925F9290
S1131BA06F927F928F929F92AF92BF92CF92DF9269
S1131BB0EF92FF920F931F93CF93DF93CDB7DEB7CE
S1131BC02B970FB6F894DEBF0FBECDBF6C017B011F
S1131BD08A01FC0117821682838181FFBFC1CE0175
S1131BE001963C01F6019381F70193FD859193FFE2
S1131BF081917F01882309F4ADC1853239F493FDC5
S1131C00859193FF81917F01853221F4B60190E0A3
S1131C10D6D1E8CF912C212C312CFFE1F315D8F04B
S1131C208B3279F038F4803279F08332A1F4232DA9
S1131C3020611DC08D3261F0803369F4232D216051
S1131C4016C0832D8260382EE32DE4603E2E2AC018
S1131C50F32DF8601DC037FC2DC020ED280F2A306D
S1131C6040F08E32B9F436FC75C1232D2064322E37
S1131C7019C036FE06C08AE0989E200D1124922ECB
S1131C8011C0EAE02E9E200D1124222EF32DF062C5
S1131C903F2E08C08C3621F4832D8068382E02C074
S1131CA0883641F4F70193FD859193FF81917F017B
S1131CB08111B3CF982F9F7D9554933028F40C5FF6
S1131CC01F4F9FE399830DC0833631F0833771F042
S1131CD0833509F055C020C0F801808189830E5FE7
S1131CE01F4F88248394912C530112C02801F2E0E1
S1131CF04F0E511CF801A080B18036FE03C0692D3F
S1131D0070E002C06FEF7FEFC5014ED14C0182013C
S1131D10F32DFF773F2E15C0280122E0420E511CFF
S1131D20F801A080B18036FE03C0692D70E002C0C6
S1131D306FEF7FEFC5012DD14C01F32DF0683F2EDD
S1131D40820133FC19C0822D90E088169906A0F414
S1131D50B60180E290E033D12A94F5CFF50137FC47
S1131D60859137FE81915F01B60190E028D1211061
S1131D702A9421E0821A91088114910479F7E1C030
S1131D80843611F0893639F5F80137FE07C06081D1
S1131D907181828193810C5F1F4F08C060817181C2
S1131DA0072E000C880B990B0E5F1F4FF32DFF7647
S1131DB03F2E97FF09C090958095709561957F4F50
S1131DC08F4F9F4FF0683F2E2AE030E0A30133D1BC
S1131DD0882E861844C0853731F4232D2F7EB22EE9
S1131DE02AE030E025C0932D997FB92E8F36C1F0BB
S1131DF018F4883579F0AEC0803719F0883721F0AF
S1131E00A9C0E92FE061BE2EB4FE0DC0FB2DF46025
S1131E10BF2E09C034FE0AC0292F2660B22E06C088
S1131E2028E030E005C020E130E002C020E132E0EB
S1131E30F801B7FE07C060817181828193810C5FD4
S1131E401F4F06C06081718180E090E00E5F1F4FDC
S1131E50A301F1D0882E8618FB2DFF773F2E36FE86
S1131E600DC0232D2E7FA22E891458F434FE0BC0EE
S1131E7032FC09C0832D8E7EA82E05C0B82CA32C5D
S1131E8003C0B82C01C0B92CA4FE0FC0FE01E80D9C
S1131E90F11D8081803321F49A2D997EA92E09C0E9
S1131EA0A2FE06C0B394B39404C08A2D867809F0C8
S1131EB0B394A3FC10C0A0FE06C0B21480F4280C96
S1131EC0922C9B180DC0B21458F4B60180E290E035
S1131ED076D0B394F8CFB21418F42B1802C0982C0F
S1131EE0212CA4FE0FC0B60180E390E068D0A2FECE
S1131EF016C0A1FC03C088E790E002C088E590E02A
S1131F00B6010CC08A2D867851F0A1FE02C08BE286
S1131F1001C080E2A7FC8DE2B60190E050D08914A4
S1131F2030F4B60180E390E04AD09A94F8CF8A94D2
S1131F30F301E80DF11D8081B60190E040D08110DD
S1131F40F6CF222009F44ECEB60180E290E037D0DD
S1131F502A94F7CFF6018681978102C08FEF9FEF15
S1131F602B960FB6F894DEBF0FBECDBFDF91CF9195
S1131F701F910F91FF90EF90DF90CF90BF90AF90A3
S1131F809F908F907F906F905F904F903F902F9095
S1131F900895FC010590615070400110D8F78095B8
S1131FA090958E0F9F1F0895FC0161507040019021
S1131FB00110D8F7809590958E0F9F1F08950F9369
S1131FC01F93CF93DF93FB01238121FD03C08FEF88
S1131FD09FEF2CC022FF16C0468157812481358192
S1131FE04217530744F4A081B1819D012F5F3F4FF5
S1131FF0318320838C93268137812F5F3F4F378332
S1132000268314C08B01EC01FB010084F185E02DD3
S11320101995892BE1F6D80116968D919C91179705
S1132020019617969C938E931697CE01DF91CF91CC
S11320301F910F910895FA01AA27283051F12031F8
S113204081F1E8946F936E7F6E5F7F4F8F4F9F4F48
S1132050AF4FB1E03ED0B4E03CD0670F781F891F8A
S11320609A1FA11D680F791F8A1F911DA11D6A0F58
S1132070711D811D911DA11D20D009F468943F910B
S11320802AE0269F11243019305D3193DEF6CF010A
S11320900895462F4770405D4193B3E00FD0C9F7D0
S11320A0F6CF462F4F70405D4A3318F0495D31FD3D
S11320B04052419302D0A9F7EACFB4E0A695979590
S11320C0879577956795BA95C9F700976105710566
S11320D008959B01AC010A2E0694579547953795B0
S11320E02795BA95C9F7620F731F841F951FA01D0A
S10920F00895F894FFCFEF
S11320F66C02A802C404A8021C07A8026C025005BC
S1132106C40450051C0750056C02F807C404F807FC
S11321161C07F807010001000100013837343100BB
S113212633323538004646464600020031323341E2
S113213634353642373839432A3023445369676184
S1132146207265746F20706F723A002564006D000A
S113215656697265206120657371756572646100E4
S113216656697265206120646972656974610050FC
S1132176656469646F20636F6C657461646F2100C4
S113218650656469646F20656E7472656775652150
S1132196005265616C697A65206120636F6C6574B1
S11321A6610053656D207375636573736F004E6FBD
S11321B6766F2070656469646F3A200041636569CF
S11321C674617220312D532020322D4E00506564E7
S11321D669646F2072656A65697461646F002F00B3
S11321E62020200044696769746520612073656E48
S11321F668613A002A004F70657261646F7220311B
S1132206004F70657261646F7220320041636573BA
S1132216736F20696E76616C69646F0054656E74C1
S113222665206E6F76616D656E74650053656E68C4
S11322366120636F727265746100446573626C6FCA
S113224671756561646F00556265722044654C451D
S1132256617473004465736C6967616E646F2E2ED6
S10522662E0044
S9030000FC
