:1000000071C000008EC000008CC000008AC00000DB
:1000100088C0000086C0000084C0000082C00000CC
:1000200080C000007EC000007CC000007AC00000DC
:1000300078C0000076C0000074C0000075C20000E7
:1000400070C000006EC000006CC000006AC00000FC
:1000500068C0000066C0000064C0000062C000000C
:1000600060C000005EC000005CC000005AC000001C
:1000700058C0000056C0000054C0000052C000002C
:1000800050C000004EC000004CC000004AC000003C
:1000900048C0000046C0000044C0000042C000004C
:1000A00040C000003EC000003CC000003AC000005C
:1000B00038C0000036C0000034C0000032C000006C
:1000C00030C000002EC000002CC000002AC000007C
:1000D00028C0000026C0000024C0000022C000008C
:1000E00020C0000011241FBECFEFD1E2DEBFCDBF84
:1000F00000E00CBF12E0A0E0B2E0ECE5FAE000E0C6
:100100000BBF02C007900D92A239B107D9F722E0C8
:10011000A2E9B2E001C01D92AF39B207E1F731D1D7
:100120009BC46ECF82B98A9889988B9A81E07DD2E0
:100130008B9883E08CC2089582B98A9A89988B9AA9
:1001400081E073D28B9881E082C208958FEF80BBEB
:1001500081B984E17CD288E3E5DF8CE0E3DF86E0EF
:10016000E1DF81E0DFDF80E8DDCF0895CF93DF932B
:10017000EC018881882329F02196DEDF89918111A5
:10018000FCCFDF91CF910895CF93DF93EA018111E6
:1001900007C0603168F4862F8F708068C3DF08C0A5
:1001A000813031F4603120F4862F8F70806CBADF9B
:1001B000CE01DCDFDF91CF91089581E0B3DF80E8ED
:1001C000B1CF089580919E028332A1F520E030E006
:1001D000A90160919402709195028091960290918C
:1001E0009702ACD2811109C0DAD160939402709366
:1001F00095028093960290939702D1D12091940218
:1002000030919502409196025091970232D220E0AF
:1002100030E84BE355E4B0D38823A4F081E0809329
:1002200099021092940210929502109296021092E6
:1002300097020895109294021092950210929602DD
:10024000109297020895CF93DF93B7DF81E292E097
:100250008DDF8091920290919302181619067CF41A
:10026000C0E0D0E041E352E06C2F81E08DDF2196C9
:100270008091920290919302C817D9079CF3209124
:100280009E02263691F0233281F02A3271F08430BA
:1002900091055CF4FC01E65FFD4F2083019690938D
:1002A00093028093920284E6D2D18091920290913F
:1002B000930204970CF462C080DF65E072E08AE08C
:1002C00092E0C1D3892B49F481E08093980283E3C3
:1002D00092E04CDF88EBBBD12AC060E072E08AE09C
:1002E00092E0B1D3892B49F482E0809398028EE3A7
:1002F00092E03CDF88EBABD11AC05FDF89E492E08B
:1003000035DF80EDA4D159DF89E592E02FDF80ED64
:100310009ED153DF1092930210929202EAE0F2E033
:1003200086E48083818382838383148227C045DFB0
:1003300089E692E01BDF8CED8AD13FDF87E792E010
:1003400015DF8CED84D139DF84E892E00FDF8CED8E
:100350007ED133DF80919802813031F483E392E0E3
:1003600005DF8CED74D107C0823029F48EE392E072
:10037000FDDE8CED6CD182E080939902DF91CF910C
:10038000089519D0C5D0E2DE5BD080939E028091A3
:100390009902813031F018F0853028F4F5CF12DF62
:1003A000F3CF51DFF1CF0EDFEFCFA89BFECF8FE170
:1003B00086BDA89A089514BC84E085BD8FE186BDF2
:1003C000E7E0F1E080818F70808380818F6080839F
:1003D000E8E0F1E080818F608083E6E0F1E08081F9
:1003E0008F6080830895FF920F931F93CF93DF93C5
:1003F0008C5F91E0F92E01C0FF0C8A95EAF7D0E0FE
:10040000C0E006E011E0D1DFF80190819F21D9130F
:1004100002C0CF5F01C0C0E0D92F2C2F30E0409147
:100420000F02509110022417350769F781E09111EE
:1004300001C080E0DF91CF911F910F91FF9008954F
:10044000AF92BF92CF92DF92EF92FF920F931F93E2
:10045000CF93DF93CDB7DEB760970FB6F894DEBFCA
:100460000FBECDBF80E1E1E1F2E0DE011196019027
:100470000D928A95E1F7E12CF12C6894CC24C3F815
:10048000DD24D394AA24A394B12CF60180818F603B
:100490008083908195010E2C02C0220F331F0A9495
:1004A000E2F7822F80958923808300E010E0802F7F
:1004B0009ADF81110FC0EE0CFF1CEE0CFF1C81E0D7
:1004C00090E08C0F9D1FE80EF91EF701E00FF11F61
:1004D00080810DC00F5F1F4F0330110541F79FEF63
:1004E000E91AF90AE4E0EE16F10479F686E6609678
:1004F0000FB6F894DEBF0FBECDBFDF91CF911F9135
:100500000F91FF90EF90DF90CF90BF90AF90089544
:100510001092B00084E08093B1001092B20081E0AC
:1005200080937000789408951F920F920FB60F92E7
:1005300011240BB60F922F933F934F935F936F93BA
:100540007F938F939F93AF93BF93EF93FF936091AC
:100550009A0270919B0280919C0290919D0220E0F2
:1005600030E040E85FE386D060939A0270939B028C
:1005700080939C0290939D02FF91EF91BF91AF9168
:100580009F918F917F916F915F914F913F912F91AB
:100590000F900BBE0F900FBE0F901F901895CF922B
:1005A000DF92EF92FF92CF93DF932FB7F894609191
:1005B0009A0270919B0280919C0290919D02C09141
:1005C0008400D09185002FBF20E030E040E857E460
:1005D000D7D16B017C01BE0180E090E01BD19B0173
:1005E000AC01C701B60146D020E030E04AE754E450
:1005F000C7D120E030E040E853E4C2D120E034E24B
:1006000044E75BE49FD0DF91CF91FF90EF90DF90C4
:10061000CF90089510928000809381001092850001
:100620001092840082E086BB0895CF93C82F8AE0A1
:10063000F1DF8C2F90E0880F991F909389008093B1
:100640008800B19BFECF82E086BBCF910895CF9307
:10065000C82F8CE0DFDF2FE3C29FC00111249093ED
:10066000890080938800B19BFECF82E086BBCF914A
:1006700008955058BB27AA270ED044C135D130F079
:100680003AD120F031F49F3F11F41EF42AC10EF448
:10069000E095E7FB20C1E92F46D180F3BA17620746
:1006A00073078407950718F071F49EF55EC10EF488
:1006B000E0950B2EBA2FA02D0B01B90190010C0172
:1006C000CA01A0011124FF27591B99F0593F50F48A
:1006D000503E68F11A16F040A22F232F342F4427E2
:1006E000585FF3CF469537952795A795F0405395DA
:1006F000C9F77EF41F16BA0B620B730B840BBAF0AA
:100700009150A1F0FF0FBB1F661F771F881FC2F714
:100710000EC0BA0F621F731F841F48F48795779528
:100720006795B795F7959E3F08F0B3CF9395880FDF
:1007300008F09927EE0F979587950895A8D008F4AB
:1007400081E008950CD0DEC0D6D040F0CDD030F09E
:1007500021F45F3F19F0BFC0511108C1C2C0E3D0FE
:1007600098F39923C9F35523B1F3951B550BBB2778
:10077000AA2762177307840738F09F5F5F4F220F25
:10078000331F441FAA1FA9F333D00E2E3AF0E0E81E
:1007900030D091505040E695001CCAF729D0FE2F6A
:1007A00027D0660F771F881FBB1F261737074807FC
:1007B000AB07B0E809F0BB0B802DBF01FF279358B2
:1007C0005F4F2AF09E3F510568F085C0CFC05F3F64
:1007D000ECF3983EDCF3869577956795B795F7959A
:1007E0009F5FC9F7880F911D9695879597F9089592
:1007F000E1E0660F771F881FBB1F6217730784072E
:10080000BA0720F0621B730B840BBA0BEE1F88F73C
:10081000E0950895E89409C097FB3EF49095809583
:10082000709561957F4F8F4F9F4F9923A9F0F92FB6
:1008300096E9BB279395F695879577956795B79534
:10084000F111F8CFFAF4BB0F11F460FF1BC06F5F1A
:100850007F4F8F4F9F4F16C0882311F096E911C02C
:10086000772321F09EE8872F762F05C0662371F04D
:1008700096E8862F70E060E02AF09A95660F771F61
:10088000881FDAF7880F9695879597F90895990F3D
:100890000008550FAA0BE0E8FEEF16161706E8074A
:1008A000F907C0F012161306E407F50798F0621B6B
:1008B000730B840B950B39F40A2661F0232B242B40
:1008C000252B21F408950A2609F4A140A6958FEF5F
:1008D000811D811D089597F99F6780E870E060E0B1
:1008E00008959FEF80EC089500240A9416161706C9
:1008F00018060906089500240A9412161306140611
:1009000005060895092E0394000C11F4882352F073
:10091000BB0F40F4BF2B11F460FF04C06F5F7F4F2B
:100920008F4F9F4F089557FD9058440F551F59F012
:100930005F3F71F04795880F97FB991F61F09F3FCC
:1009400079F087950895121613061406551FF2CFF5
:100950004695F1DF08C0161617061806991FF1CF45
:1009600086957105610508940895E894BB2766276C
:100970007727CB0197F908958ADF08F48FEF089560
:100980000BD0C0CFB1DF28F0B6DF18F0952309F007
:10099000A2CFA7CF1124EACFC6DFA0F3959FD1F352
:1009A000950F50E0551F629FF001729FBB27F00D1D
:1009B000B11D639FAA27F00DB11DAA1F649F662772
:1009C000B00DA11D661F829F2227B00DA11D621FC1
:1009D000739FB00DA11D621F839FA00D611D221F7B
:1009E000749F3327A00D611D231F849F600D211D5F
:1009F000822F762F6A2F11249F5750408AF0E1F002
:100A000088234AF0EE0FFF1FBB1F661F771F881F4A
:100A100091505040A9F79E3F510570F05CCFA6CF92
:100A20005F3FECF3983EDCF3869577956795B79535
:100A3000F795E7959F5FC1F7FE2B880F911D96955F
:100A4000879597F90895FB01DC018D91019080193C
:0C0A50000110D9F3990B0895F894FFCF22
:100A5C0038373431003332353800464646460002CA
:100A6C00003132334134353642373839432A30235A
:100A7C004444696769746520612073656E68613AE6
:100A8C00002A004F70657261646F722031004F70E4
:100A9C00657261646F7220320041636573736F20FD
:100AAC00696E76616C69646F0054656E7465206E56
:100ABC006F76616D656E74650053656E6861206359
:100ACC006F727265746100446573626C6F717565E9
:100ADC0061646F00556265722044654C45617473A6
:020AEC00000008
:00000001FF
