S01200006D6963726F5F756265722E73726563EB
S113000080C000009FC000009DC000009BC0000095
S113001099C0000097C0000095C0000093C0000084
S113002091C000008FC000008DC000008BC0000094
S113003089C0000087C0000085C000000C94610BDB
S113004081C000007FC000007DC000007BC00000B4
S113005079C0000077C0000075C0000073C00000C4
S113006071C0000015C600006DC000006BC0000028
S113007069C0000067C0000065C0000063C00000E4
S113008061C000005FC000005DC000005BC00000F4
S113009059C0000057C0000055C0000053C0000004
S11300A051C000004FC000004DC000004BC0000014
S11300B049C0000047C0000045C0000043C0000024
S11300C041C000003FC000003DC000003BC0000034
S11300D039C0000037C0000035C0000033C0000044
S11300E031C0000047037703A703D703070437048D
S11300F0670497046A067106C506E30601070A0742
S1130100220711241FBECFEFD1E2DEBFCDBF00E036
S11301100CBF13E0A0E0B2E0ECE1F2E200E00BBFC0
S113012002C007900D92A836B107D9F723E0A8E6DC
S1130130B3E001C01D92A73CB207E1F70E94030A95
S11301400C940C115DCF2F923F924F925F926F925D
S11301507F928F929F92AF92BF92CF92DF92EF9253
S1130160FF920F931F93CF93DF93CDB7DEB72A97F8
S11301700FB6F894DEBF0FBECDBF1C013B01E0E01B
S1130180F2E080819181B101681B790B072E000C8C
S1130190880B990B0E94810C6B017C0180910202F7
S11301A090910302B301681B790B072E000C880B96
S11301B0990B0E94810C4B015C019B01AC010E94D4
S11301C0350D69837A838B839C83A5019401C501D2
S11301D0B4010E94350D4B015C01A7019601C701D2
S11301E0B6010E94350D9B01AC01C501B4010E940A
S11301F0AF0B0E949C0D6D837E83482E592E80E0A8
S113020092E001E010E01F8218869A878987E985C9
S1130210FA8584819581B101681B790B072E000C46
S1130220880B990B0E94810C6B017C01E985FA858E
S113023086819781B301681B790B072E000C880B0C
S1130240990B0E94810C4B015C019B01AC010E9443
S1130250350D69837A838B839C83A5019401C50141
S1130260B4010E94350D4B015C01A7019601C70141
S1130270B6010E94350D9B01AC01C501B4010E9479
S1130280AF0B0E949C0DC62ED72EE82EF92E2D8181
S11302903E81442D552D0E94130C882334F4CD82C5
S11302A0DE824E2C5F2C0F8318870F5F1F4F8985CA
S11302B09A8504969A8789870930110509F0A7CF92
S11302C08F8198852A960FB6F894DEBF0FBECDBFF6
S11302D0DF91CF911F910F91FF90EF90DF90CF901E
S11302E0BF90AF909F908F907F906F905F904F9052
S11302F03F902F9008958093C600E0ECF0E0808159
S113030086FFFDCFE0ECF0E0808180648083609321
S1130310C600808186FFFDCFE0ECF0E08081806440
S1130320808308958093C600E0ECF0E0808186FF2E
S1130330FDCFE0ECF0E08081806480836093C600B0
S1130340808186FFFDCFE0ECF0E0808180648083D3
S11303504093C600808186FFFDCFE0ECF0E0808111
S113036080648083089595E59093C600E0ECF0E006
S1130370908196FFFDCFE0ECF0E090819064908353
S11303809DE49093C600908196FFFDCFE0ECF0E0F1
S11303909081906490838093C600808186FFFDCF16
S11303A0E0ECF0E080818064808308951092C500C1
S11303B083E38093C40088E98093C10086E080933E
S11303C0C2000895E2EBF3E0808190E0982F882743
S11303D02181822B90939C0380939B03E4ECF3E0B4
S11303E0208130E0322F22274181242B30939A033D
S11303F020939903EFEBF3E0408150E0542F44271E
S11304006181462B5093980340939703EDEBF3E0FF
S1130410608170E0762F6627E1816E2B70939603DE
S113042060939503A9EBB3E0EC91F0E0FE2FEE2787
S11304301196AC91EA2BF0939403E0939303AEEA04
S1130440B3E0EC91F0E0FE2FEE271196AC91EA2B8D
S1130450F0939203E0939103841B950B81359105EE
S1130460D8F4261B370B21353105B0F480912802CE
S113047090912902892B81F040919E0369E485E5DE
S113048051DF81E090E0909377038093760310929C
S113049029021092280267DF80919B0390919C03AC
S11304A02091930330919403821B930B853691051D
S11304B018F58091990390919A03209191033091BA
S11304C09203821B930B85369105B0F480917403DB
S11304D090917503892B81F040919E0366E485E534
S11304E021DF109275031092740381E090E09093E1
S11304F073038093720337CF0895CF93DF9362DF42
S1130500C0919B03D0919C036091990370919A03CD
S1130510CE0119DE9093900380938F03FC01EE0FBC
S1130520FF1FEE0FFF1FE050FE4F40815181BA01C3
S11305306C1B7D0B9B0122F422273327261B370BD0
S113054030938E0320938D03509388034093870345
S1130550880F991F880F991FFC01E050FE4F82817C
S113056093819093860380938503C0919703D091E0
S113057098036091950370919603CE01E4DD909306
S1130580900380938F03FC01EE0FFF1FEE0FFF1FFC
S1130590E050FE4F40815181BA016C1B7D0B9B01E1
S11305A022F422273327261B370B30938C03209306
S11305B08B035093840340938303880F991F880F00
S11305C0991FFC01E050FE4F828193819093820336
S11305D080938103C0919303D0919403609191031C
S11305E070919203CE01AFDD9093900380938F03BB
S11305F0FC01EE0FFF1FEE0FFF1FE050FE4F408186
S11306005181BA016C1B7D0B9B0122F422273327F5
S1130610261B370B30938A0320938903509380035E
S113062040937F03880F991F880F991FFC01E050A6
S1130630FE4F8281938190937E0380937D03DF91AB
S1130640CF9108950F931F93CF93DF9300D01F9200
S11306501F92CDB7DEB78B0181E090E09093C30386
S11306608093C203AFDE49DF012B09F48FC1E0910F
S11306702A028E2F90E0FC013197E830F10508F052
S113068085C18827EE58FF4F8F4F0C94110E63D508
S11306908FE492E039D580EC0AD520918103309122
S11306A082038091990390919A03281B390BC90105
S11306B0992324F488279927821B930B9F938F9364
S11306C08EE592E09F938F938E010F5F1F4F1F93D0
S11306D00F930E94310EC80117D581E692E014D51C
S11306E00F900F900F900F900F900F904FC133D534
S11306F08FE492E009D580ECDAD420918303309121
S1130700840380919B0390919C03281B390BC9019E
S1130710992324F488279927821B930B9F938F9303
S11307208EE592E09F938F938E010F5F1F4F1F936F
S11307300F930E94310EC801E7D481E692E0E4D41D
S11307400F900F900F900F900F900F901FC103D533
S11307508FE492E0D9D480ECAAD420917D03309127
S11307607E038091990390919A03281B390BC90148
S1130770992324F488279927821B930B9F938F93A3
S11307808EE592E09F938F938E010F5F1F4F1F930F
S11307900F930E94310EC801B7D481E692E0B4D41D
S11307A00F900F900F900F900F900F90EFC0D3D435
S11307B08FE492E0A9D480EC7AD420917F03309125
S11307C0800380919B0390919C03281B390BC901E2
S11307D0992324F488279927821B930B9F938F9343
S11307E08EE592E09F938F938E010F5F1F4F1F93AF
S11307F00F930E94310EC80187D481E692E084D41D
S11308000F900F900F900F900F900F90BFC0A3D434
S11308108FE492E079D480EC4AD420919303309110
S1130820940380919B0390919C03281B390BC9016D
S1130830992324F488279927821B930B9F938F93E2
S11308408EE592E09F938F938E010F5F1F4F1F934E
S11308500F930E94310EC80157D481E692E054D41C
S11308600F900F900F900F900F900F908FC073D434
S11308708FE492E049D480EC1AD420919103309112
S113088092038091990390919A03281B390BC90113
S1130890992324F488279927821B930B9F938F9382
S11308A08EE592E09F938F938E010F5F1F4F1F93EE
S11308B00F930E94310EC80127D481E692E024D41C
S11308C00F900F900F900F900F900F905FC043D434
S11308D08FE492E019D480ECEAD32091970330910D
S11308E0980380919B0390919C03281B390BC901A9
S11308F0992324F488279927821B930B9F938F9322
S11309008EE592E09F938F938E010F5F1F4F1F938D
S11309100F930E94310EC801F7D381E692E0F4D31D
S11309200F900F900F900F900F900F902FC013D433
S11309308FE492E0E9D380ECBAD32091950330910F
S113094096038091990390919A03281B390BC9014E
S1130950992324F488279927821B930B9F938F93C1
S11309608EE592E09F938F938E010F5F1F4F1F932D
S11309700F930E94310EC801C7D381E692E0C4D31D
S11309800F900F900F900F900F900F90209199035C
S113099030919A038091810390918203821B930B7F
S11309A0823E4FEF9407A4F14F9794F5809176031C
S11309B090917703892B61F580919B0390919C031F
S11309C04091970350919803841B950BAC0122F43A
S11309D044275527481B590B42335105CCF087E077
S11309E080932A02B8D32091970330919803809181
S11309F09B0390919C032817390720F483E692E027
S1130A0083D303C083E792E07FD382E038D6C0C0AB
S1130A1080917D0390917E03821B930B823E4FEF66
S1130A209407A4F14F9794F5809174039091750302
S1130A30892B61F180919B0390919C0340919303D6
S1130A4050919403841B950BAC0122F44427552741
S1130A50481B590B42335105CCF085E080932A02A0
S1130A607AD3209193033091940380919B039091C6
S1130A709C032817390720F483E692E045D303C08A
S1130A8083E792E041D382E0FAD582C080917F036C
S1130A909091800340919B0350919C03841B950B80
S1130AA0823E4FEF94079CF18F31910584F580913C
S1130AB0740390917503892B09F46AC080919103A2
S1130AC090919203281B390BC901992324F4882798
S1130AD09927821B930BC2970CF45AC086E080932B
S1130AE02A0239D320919103309192038091990382
S1130AF090919A038217930720F483E692E004D33B
S1130B0003C083E792E000D382E0B9D541C0AC01D1
S1130B10992324F444275527481B590B4233510584
S1130B20BCF18091740390917503892B89F18091B4
S1130B30910390919203281B390BC901992324F442
S1130B4088279927821B930BC29714F183E0809323
S1130B502A028091260290912702892BC9F01092D3
S1130B60270210922602F7D220919103309192032A
S1130B708091990390919A038217930720F483E656
S1130B8092E0C2D203C083E792E0BED282E077D57E
S1130B908091760390917703892B71F010927703FB
S1130BA010927603D8D282E892E0AED281E090E04F
S1130BB0DADB81E064D50EC08091720390917303F7
S1130BC0892B41F01092730310927203C4D283E90B
S1130BD092E09AD20F900F900F900F900F90DF91A8
S1130BE0CF911F910F91089580916A0390916B03A7
S1130BF0892BA1F010926B0310926A03ACD284EAA1
S1130C0092E082D2DFDB81E03AD560919503709166
S1130C1096038091990390919A0314CD089580913D
S1130C206A0390916B03892B21F095D285EB92E0B6
S1130C306BC20895CF93DF9365E485E55CDB8BD2CB
S1130C4081EC92E061D280EC32D28FEC92E05CD203
S1130C50C1E0D0E015C041D48093C103813351F485
S1130C6040919E0361E485E55DDBD0936B03C09303
S1130C706A0306C0823321F46ED280EE92E044D23D
S1130C808091C1038153823030F7DF91CF91089571
S1130C901F920F920FB60F9211240BB60F922F933F
S1130CA03F934F935F936F937F938F939F93AF93F0
S1130CB0BF93EF93FF932091C60080917C0390E053
S1130CC08730910508F0D5C0FC018827E658FF4F0E
S1130CD08F4FA7C7233509F0CEC081E080937C03F2
S1130CE0CAC0203551F4109271031092700382E04F
S1130CF080937C0310927B03BEC0283431F483E0DC
S1130D0080937C0310927A03B6C0253441F484E0C6
S1130D1080937C031092790310927803ACC0213441
S1130D2021F410927C0360DFA6C02E3421F41092CB
S1130D307C0375DFA0C02D3449F410927C0381E05C
S1130D4090E0909369038093680395C0293449F433
S1130D5010927C0381E090E0909375038093740378
S1130D608AC0263479F481E090E0909371038093F3
S1130D707003909329028093280290932702809312
S1130D80260279C010927C0376C080917B03823066
S1130D9030F4E82FF0E0EE54FC4F208305C0E82F38
S1130DA0F0E0EE53FC4F20838F5F80937B0384300D
S1130DB008F461C081E090E090936F0380936E0328
S1130DC010927C0358C080917A03823030F4E82F6B
S1130DD0F0E0E554FC4F208305C0E82FF0E0E25535
S1130DE0FC4F20838F5F80937A03843008F443C0E0
S1130DF081E090E090936D0380936C0310927C03E8
S1130E003AC081E080939D0320939E0385E0809304
S1130E107C0331C080917803823030F4E82FF0E015
S1130E20E754FC4F208305C0E82FF0E0E455FC4F65
S1130E3020838F5F809378038430E8F086E080938A
S1130E407C0319C080917903823030F4E82FF0E0FC
S1130E50E154FC4F208305C0E82FF0E0E554FC4F3B
S1130E6020838F5F80937903843028F010927C0371
S1130E7002C010927C03FF91EF91BF91AF919F91BB
S1130E808F917F916F915F914F913F912F910F902F
S1130E900BBE0F900FBE0F901F901895AF92BF928C
S1130EA0CF92DF92EF92FF920F931F93CF93DF9332
S1130EB0CDB7DEB72A970FB6F894DEBF0FBECDBF0D
S1130EC075DA0F2EFBEBAF2EF3E0BF2EF02D0F2EB5
S1130ED0FEE5EF2EF2E0FF2EF02D8E010F5F1F4F87
S1130EE00F2EF0EBCF2EF3E0DF2EF02D80919D033B
S1130EF0882319F010929D039DDE80916E039091DA
S1130F006F03892BC1F110926F0310926E0360E599
S1130F1085E5F1D957DA8091760390917703892B8F
S1130F2079F48091700390917103892B49F4609155
S1130F309503709196038091990390919A0382DBB3
S1130F408091280290912902892BA9F4809172033F
S1130F5090917303892B79F48091700390917103BC
S1130F60892B49F4609191037091920380919903C4
S1130F7090919A0367DB80916C0390916D03892BA8
S1130F8009F443C010926D0310926C0368E485E584
S1130F90B2D980EC8CD0F50180811F928F93FF929F
S1130FA0EF921F930F935DD6C801AED081EF92E00C
S1130FB0ABD0F50181811F928F93FF92EF921F9323
S1130FC00F934FD6C801A0D083EF92E09DD0F601D5
S1130FD080811F928F93FF92EF921F930F9341D6BC
S1130FE0C80192D083E193E08FD0F60181811F92F2
S1130FF08F93FF92EF921F930F9333D6C80184D03F
S11310000FB6F894DEBF0FBECDBF67D28093C10385
S1131010682F82E090E0A4D082309105B9F58091E8
S1131020C2039091C303892B09F460CF56D28093F5
S1131030C103843309F118F4823331F057CF853377
S113104069F0863379F052CF82E090E08CD981E068
S113105090E0909325028093240248CF81E090E0B1
S113106082D944CF83E090E07ED983E090E09093EE
S11310702502809324023ACF84E090E074D984E07E
S113108090E0909325028093240230CF2A960FB6E5
S1131090F894DEBF0FBECDBFDF91CF911F910F91AA
S11310A0FF90EF90DF90CF90BF90AF90089582B9FA
S11310B08A9889988B9A81E0B5D28B9883E090E0E6
S11310C0C4C2089582B98A9A89988B9A81E0AAD277
S11310D08B9881E090E0B9C208958FEF80BB81B90D
S11310E0849A8C9A84E190E0B0D288E3E0DF8CE0CB
S11310F0DEDF86E0DCDF81E0DADF80E8D8CF089548
S11311008C9888E0D4CF0895CF93DF93EC01888145
S1131110882329F02196D6DF89918111FCCFDF91B4
S1131120CF910895CF93DF93EA01811107C0603115
S113113068F4862F8F708068BADF08C0813031F47C
S1131140603120F4862F8F70806CB1DFCE01DCDF3C
S1131150DF91CF91089581E0AADF80E8A8CF0895B8
S1131160CF93DF936A3209F03FC0C92FD82F20E014
S113117030E0A90160919F037091A0038091A103C5
S11311809091A20350D3811109C0C0D260939F03F0
S11311907093A0038093A1039093A203B7D22091EC
S11311A09F033091A0034091A1035091A203D6D292
S11311B020E030E04AE755E454D48823F4F047EFC4
S11311C052E060E081E0AEDF80ED97E03ED2C3DF25
S11311D097DF10929F031092A0031092A103109224
S11311E0A20380E090E00BC010929F031092A00332
S11311F01092A1031092A20302C08D2F9C2FDF91A5
S1131200CF9108958091C6038332C1F520E030E088
S1131210A9016091A5037091A6038091A703909101
S1131220A80301D3811109C071D26093A5037093FF
S1131230A6038093A7039093A80368D22091A503E3
S11312403091A6034091A7035091A80387D220E0D0
S113125030E84BE355E405D48823C4F081E090E002
S113126090933C0280933B0238DF1092A5031092C6
S1131270A6031092A7031092A80308951092A50341
S11312801092A6031092A7031092A8030895CF9377
S1131290DF9380912B02882331F05DDF85E093E0BA
S11312A033DF10922B028091A3039091A4031816AC
S11312B019067CF4C0E0D0E045E153E06C2F81E0F6
S11312C031DF21968091A3039091A403C817D90715
S11312D09CF32091C603263699F0233289F02A32F2
S11312E079F08430910564F4FC01EA5CFD4F2083BD
S11312F001969093A4038093A30384E690E0A5D180
S11313008091A3039091A40304970CF479C023DF84
S113131061E372E086E392E09BD4892B51F481E08F
S11313208093A90387E193E0EFDE80ED97E08DD110
S113133030C06CE272E086E392E08AD4892B51F4E7
S113134082E08093A90382E293E0DEDE80ED97E001
S11313507CD11FC000DF8DE293E0D6DE80ED97E004
S113136074D1F9DE8DE393E0CFDE80ED97E06DD1AB
S1131370F2DE81E080932B021092A4031092A30367
S1131380E6E3F2E086E480838183828383831482AC
S113139037C0E1DE8DE493E0B7DE80ED97E055D110
S11313A0DADE8BE593E0B0DE80ED97E04ED1D3DE5C
S11313B08091A903813039F487E193E0A5DE80EDC3
S11313C097E043D108C0823031F482E293E09CDE9E
S11313D080ED97E03AD181E080932B021092A40330
S11313E01092A303E6E3F2E086E4808381838283A0
S11313F08383148282E090E090933C0280933B02CA
S1131400DF91CF91089525D050D167DE66D08093C7
S1131410C603682F80913B0290913C02A1DE909319
S11314203C0280933B028130910531F018F0029721
S113143029F0ECCFE7DEEACF2ADFE8CF2FDD909367
S11314403C0280933B02E2CFA89BFECF16BCA89A35
S1131450089514BC84E085BD16BCE7E0F1E080810A
S11314608F70808380818F608083E8E0F1E08081E9
S11314708F608083E6E0F1E080818F60808308954F
S1131480FF920F931F93CF93DF938C5F91E0F92E1C
S113149001C0FF0C8A95EAF7D0E0C0E006E011E055
S11314A0D3DFF80190819F21D91302C0CF5F01C01F
S11314B0C0E0D92F2C2F30E040913D0250913E02E4
S11314C02417350769F781E0911101C080E0DF91AD
S11314D0CF911F910F91FF900895AF92BF92CF9239
S11314E0DF92EF92FF920F931F93CF93DF93CDB7C9
S11314F0DEB760970FB6F894DEBF0FBECDBF80E1B4
S1131500EFE3F2E0DE01119601900D928A95E1F786
S1131510E12CF12C6894CC24C3F8DD24D394AA24C0
S1131520A394B12CF60180818F6080839081950112
S11315300E2C02C0220F331F0A94E2F7822F8095EB
S11315408923808300E010E0802F9ADF81110FC08F
S1131550EE0CFF1CEE0CFF1C81E090E08C0F9D1F35
S1131560E80EF91EF701E00FF11F80810DC00F5F37
S11315701F4F0330110541F79FEFE91AF90AE4E020
S1131580EE16F10479F686E660960FB6F894DEBF9F
S11315900FBECDBFDF91CF911F910F91FF90EF90C0
S11315A0DF90CF90BF90AF90089510928000803468
S11315B09105D9F030F48130910559F0089779F00C
S11315C025C0811521E09207B1F081159440C9F03E
S11315D01DC0E1E8F0E080818160808317C0E1E80C
S11315E0F0E080818260808311C0E1E8F0E08081D6
S11315F0836080830BC0E1E8F0E0808184608083B5
S113160005C0E1E8F0E0808185608083E1E8F0E0F6
S113161080818860808382E086BB1092850010926E
S113162084000895CF93C82F8AE090E0BEDF8C2F0A
S113163090E0880F991F9093890080938800B19B54
S1131640FECF82E086BBCF910895CF93DF93EC0168
S113165080E094E0AADF9E01A9E0BDE3EAD228EE8F
S113166033E040E050E0BBD23093890020938800FF
S1131670B19BFECF82E086BBDF91CF910895CF93DB
S1131680C82F8DE090E091DF29E03DE3C29FC001C7
S1131690C39F900D11249093890080938800B19B7F
S11316A0FECF82E086BBCF9108951092B00086E011
S11316B08093B1001092B20081E08093700078941E
S11316C008951F920F920FB60F9211248F939F9338
S11316D0AF93BF938091AA039091AB03A091AC0305
S11316E0B091AD030196A11DB11D8093AA039093FF
S11316F0AB03A093AC03B093AD03BF91AF919F91A3
S11317008F910F900FBE0F901F9018953FB7F894CC
S11317108091AA039091AB03A091AC03B091AD0367
S11317202091B2003FBFBA2FA92F982F8827BC0160
S1131730CD01620F711D811D911DE1D020E030E0CB
S113174040E853E492D120E030E04AE754E48DD1FC
S113175020E034E244E75BE46AC008955058BB27B4
S1131760AA270ED044C135D130F03AD120F031F45B
S11317709F3F11F41EF42AC10EF4E095E7FB20C14B
S1131780E92F46D180F3BA176207730784079507D8
S113179018F071F49EF55EC10EF4E0950B2EBA2F8D
S11317A0A02D0B01B90190010C01CA01A001112463
S11317B0FF27591B99F0593F50F4503E68F11A160F
S11317C0F040A22F232F342F4427585FF3CF4695A0
S11317D037952795A795F0405395C9F77EF41F16C2
S11317E0BA0B620B730B840BBAF09150A1F0FF0F8C
S11317F0BB1F661F771F881FC2F70EC0BA0F621F78
S1131800731F841F48F4879577956795B795F79567
S11318109E3F08F0B3CF9395880F08F09927EE0FF9
S1131820979587950895A8D008F481E008950CD081
S1131830DEC0D6D040F0CDD030F021F45F3F19F0B7
S1131840BFC0511108C1C2C0E3D098F39923C9F3B2
S11318505523B1F3951B550BBB27AA2762177307B2
S1131860840738F09F5F5F4F220F331F441FAA1F66
S1131870A9F333D00E2E3AF0E0E830D09150504026
S1131880E695001CCAF729D0FE2F27D0660F771FD4
S1131890881FBB1F261737074807AB07B0E809F0B6
S11318A0BB0B802DBF01FF2793585F4F2AF09E3F4B
S11318B0510568F085C0CFC05F3FECF3983EDCF380
S11318C0869577956795B795F7959F5FC9F7880FC4
S11318D0911D9695879597F90895E1E0660F771F16
S11318E0881FBB1F621773078407BA0720F0621BA7
S11318F0730B840BBA0BEE1F88F7E0950895E894F8
S113190009C097FB3EF490958095709561957F4F43
S11319108F4F9F4F9923A9F0F92F96E9BB279395F1
S1131920F695879577956795B795F111F8CFFAF401
S1131930BB0F11F460FF1BC06F5F7F4F8F4F9F4F32
S113194016C0882311F096E911C0772321F09EE890
S1131950872F762F05C0662371F096E8862F70E0F6
S113196060E02AF09A95660F771F881FDAF7880FD0
S11319709695879597F90895990F0008550FAA0B26
S1131980E0E8FEEF16161706E807F907C0F012168E
S11319901306E407F50798F0621B730B840B950B91
S11319A039F40A2661F0232B242B252B21F40895E6
S11319B00A2609F4A140A6958FEF811D811D089583
S11319C097F99F6780E870E060E008959FEF80ECEE
S11319D0089500240A941616170618060906089591
S11319E000240A9412161306140605060895092EF7
S11319F00394000C11F4882352F0BB0F40F4BF2B66
S1131A0011F460FF04C06F5F7F4F8F4F9F4F0895A5
S1131A1057FD9058440F551F59F05F3F71F047959B
S1131A20880F97FB991F61F09F3F79F08795089580
S1131A30121613061406551FF2CF4695F1DF08C09F
S1131A40161617061806991FF1CF869571056105BC
S1131A5008940895E894BB2766277727CB0197F964
S1131A6008958ADF08F48FEF08950BD0C0CFB1DF5B
S1131A7028F0B6DF18F0952309F0A2CFA7CF1124E0
S1131A80EACFC6DFA0F3959FD1F3950F50E0551F21
S1131A90629FF001729FBB27F00DB11D639FAA27BF
S1131AA0F00DB11DAA1F649F6627B00DA11D661F0E
S1131AB0829F2227B00DA11D621F739FB00DA11D2F
S1131AC0621F839FA00D611D221F749F3327A00DE9
S1131AD0611D231F849F600D211D822F762F6A2F85
S1131AE011249F5750408AF0E1F088234AF0EE0F0A
S1131AF0FF1FBB1F661F771F881F91505040A9F717
S1131B009E3F510570F05CCFA6CF5F3FECF3983E4B
S1131B10DCF3869577956795B795F795E7959F5F7D
S1131B20C1F7FE2B880F911D9695879597F9089517
S1131B3011F40EF44BCF3EC073DFD0F39923D9F3E5
S1131B40CEF39F57550B87FF43D00024A0E640EA0D
S1131B50900180585695979528F4805C660F771FFE
S1131B60881F20F026173707480730F4621B730BD1
S1131B70840B202931294A2BA695179407942025F4
S1131B8031254A2758F7660F771F881F20F026173C
S1131B903707480730F4620B730B840B200D311D9B
S1131BA0411DA09581F7B901842F9158880F96950E
S1131BB0879508959F3F31F0915020F4879577954C
S1131BC06795B795880F911D9695879597F9089510
S1131BD091505040660F771F881FD2F70895A1E2F5
S1131BE01A2EAA1BBB1BFD010DC0AA1FBB1FEE1F93
S1131BF0FF1FA217B307E407F50720F0A21BB30BDE
S1131C00E40BF50B661F771F881F991F1A9469F759
S1131C1060957095809590959B01AC01BD01CF01B5
S1131C200895EE0FFF1F881F8BBF0790F691E02DDC
S1131C301994A29FB001B39FC001A39F700D811D91
S1131C401124911DB29F700D811D1124911D0895C1
S1131C50FB01DC018D91019080190110D9F3990BDE
S1131C6008950F931F93CF93DF93CDB7DEB72E97CD
S1131C700FB6F894DEBF0FBECDBF0E891F8986E074
S1131C808C831A8309838FEF9FE79E838D83AE0134
S1131C90465E5F4F688D798DCE01019610D0EF813D
S1131CA0F885E00FF11F10822E960FB6F894DEBF70
S1131CB00FBECDBFDF91CF911F910F9108952F9249
S1131CC03F924F925F926F927F928F929F92AF92C8
S1131CD0BF92CF92DF92EF92FF920F931F93CF9315
S1131CE0DF93CDB7DEB72B970FB6F894DEBF0FBEE8
S1131CF0CDBF6C017B018A01FC01178216828381AE
S1131D0081FFBFC1CE0101963C01F6019381F70129
S1131D1093FD859193FF81917F01882309F4ADC1DF
S1131D20853239F493FD859193FF81917F0185324A
S1131D3021F4B60190E0D6D1E8CF912C212C312C9E
S1131D40FFE1F315D8F08B3279F038F4803279F072
S1131D508332A1F4232D20611DC08D3261F08033C4
S1131D6069F4232D216016C0832D8260382EE32D63
S1131D70E4603E2E2AC0F32DF8601DC037FC2DC050
S1131D8020ED280F2A3040F08E32B9F436FC75C1AC
S1131D90232D2064322E19C036FE06C08AE0989E98
S1131DA0200D1124922E11C0EAE02E9E200D112444
S1131DB0222EF32DF0623F2E08C08C3621F4832DA1
S1131DC08068382E02C0883641F4F70193FD85916E
S1131DD093FF81917F018111B3CF982F9F7D9554FB
S1131DE0933028F40C5F1F4F9FE399830DC0833613
S1131DF031F0833771F0833509F055C020C0F80104
S1131E00808189830E5F1F4F88248394912C530112
S1131E1012C02801F2E04F0E511CF801A080B180DD
S1131E2036FE03C0692D70E002C06FEF7FEFC5017D
S1131E304ED14C018201F32DFF773F2E15C02801AE
S1131E4022E0420E511CF801A080B18036FE03C08E
S1131E50692D70E002C06FEF7FEFC5012DD14C01F9
S1131E60F32DF0683F2E820133FC19C0822D90E0DF
S1131E7088169906A0F4B60180E290E033D12A9442
S1131E80F5CFF50137FC859137FE81915F01B601ED
S1131E9090E028D121102A9421E0821A910881141B
S1131EA0910479F7E1C0843611F0893639F5F801E7
S1131EB037FE07C060817181828193810C5F1F4F5F
S1131EC008C060817181072E000C880B990B0E5F8E
S1131ED01F4FF32DFF763F2E97FF09C090958095F5
S1131EE0709561957F4F8F4F9F4FF0683F2E2AE08A
S1131EF030E0A30133D1882E861844C0853731F4ED
S1131F00232D2F7EB22E2AE030E025C0932D997F19
S1131F10B92E8F36C1F018F4883579F0AEC0803709
S1131F2019F0883721F0A9C0E92FE061BE2EB4FE74
S1131F300DC0FB2DF460BF2E09C034FE0AC0292F4A
S1131F402660B22E06C028E030E005C020E130E073
S1131F5002C020E132E0F801B7FE07C06081718160
S1131F60828193810C5F1F4F06C06081718180E084
S1131F7090E00E5F1F4FA301F1D0882E8618FB2D31
S1131F80FF773F2E36FE0DC0232D2E7FA22E8914FF
S1131F9058F434FE0BC032FC09C0832D8E7EA82E6B
S1131FA005C0B82CA32C03C0B82C01C0B92CA4FEC6
S1131FB00FC0FE01E80DF11D8081803321F49A2DBC
S1131FC0997EA92E09C0A2FE06C0B394B39404C09E
S1131FD08A2D867809F0B394A3FC10C0A0FE06C035
S1131FE0B21480F4280C922C9B180DC0B21458F42F
S1131FF0B60180E290E076D0B394F8CFB21418F42E
S11320002B1802C0982C212CA4FE0FC0B60180E32B
S113201090E068D0A2FE16C0A1FC03C088E790E05F
S113202002C088E590E0B6010CC08A2D867851F094
S1132030A1FE02C08BE201C080E2A7FC8DE2B601E2
S113204090E050D0891430F4B60180E390E04AD097
S11320509A94F8CF8A94F301E80DF11D8081B601BA
S113206090E040D08110F6CF222009F44ECEB60184
S113207080E290E037D02A94F7CFF60186819781E9
S113208002C08FEF9FEF2B960FB6F894DEBF0FBE02
S1132090CDBFDF91CF911F910F91FF90EF90DF9013
S11320A0CF90BF90AF909F908F907F906F905F90F4
S11320B04F903F902F900895FC010590615070401F
S11320C00110D8F7809590958E0F9F1F0895FC01FD
S11320D06150704001900110D8F7809590958E0F53
S11320E09F1F08950F931F93CF93DF93FB012381C9
S11320F021FD03C08FEF9FEF2CC022FF16C0468145
S11321005781248135814217530744F4A081B1815A
S11321109D012F5F3F4F318320838C93268137812C
S11321202F5F3F4F3783268314C08B01EC01FB01E3
S11321300084F185E02D1995892BE1F6D8011696D6
S11321408D919C911797019617969C938E93169751
S1132150CE01DF91CF911F910F910895FA01AA2723
S1132160283051F1203181F1E8946F936E7F6E5FD6
S11321707F4F8F4F9F4FAF4FB1E03ED0B4E03CD084
S1132180670F781F891F9A1FA11D680F791F8A1F67
S1132190911DA11D6A0F711D811D911DA11D20D0CE
S11321A009F468943F912AE0269F11243019305D88
S11321B03193DEF6CF010895462F4770405D419379
S11321C0B3E00FD0C9F7F6CF462F4F70405D4A33C6
S11321D018F0495D31FD4052419302D0A9F7EACF8E
S11321E0B4E0A6959795879577956795BA95C9F7BD
S11321F000976105710508959B01AC010A2E0694B0
S11322005795479537952795BA95C9F7620F731F68
S10F2210841F951FA01D0895F894FFCFB3
S113221C6C02A802C404A8021C07A8026C02500594
S113222CC40450051C0750056C02F807C404F807D5
S113223C1C07F80701000100010001013837343193
S113224C003332353800464646460001000800315A
S113225C32334134353642373839432A30234453E8
S113226C696761207265746F20706F723A0025641F
S113227C006D005669726520612065737175657215
S113228C64610056697265206120646972656974C1
S113229C610050656469646F20636F6C657461647C
S11322AC6F210050656469646F20656E7472656794
S11322BC756521005265616C697A65206120636FD4
S11322CC6C6574610053656D207375636573736F0E
S11322DC004E6F766F2070656469646F3A2000411C
S11322EC63656974617220312D532020322D4E00A8
S11322FC50656469646F2072656A65697461646FA2
S113230C002F00202020004465736C6967616E64A3
S113231C6F2E2E2E004469676974652061207365E5
S113232C6E68613A002A004F70657261646F7220A6
S113233C31004F70657261646F72203200416365C5
S113234C73736F20696E76616C69646F0054656E8B
S113235C7465206E6F76616D656E7465004465738B
S113236C626C6F717565616E646F00556265722085
S10B237C44654C4561747300D3
S9030000FC
