:10000000FDC000001CC100001AC1000018C10000A2
:1000100016C1000014C1000012C1000010C1000090
:100020000EC100000CC100000AC1000008C10000A0
:1000300006C1000004C1000002C100000C94760C4F
:10004000FEC00000FCC00000FAC00000F8C00000C4
:10005000F6C00000F4C00000F2C00000F0C00000D4
:10006000EEC0000031C70000EAC00000E8C0000098
:10007000E6C00000E4C00000E2C00000E0C00000F4
:10008000DEC00000DCC00000DAC00000D8C0000004
:10009000D6C00000D4C00000D2C00000D0C0000014
:1000A000CEC00000CCC00000CAC00000C8C0000024
:1000B000C6C00000C4C00000C2C00000C0C0000034
:1000C000BEC00000BCC00000BAC00000B8C0000044
:1000D000B6C00000B4C00000B2C00000B0C0000054
:1000E000AEC00000CB03FB032B045B048B04BB04FA
:1000F000EB041B0586078D07E707050823082C0876
:10010000440800407A10F35A00A0724E18090010FB
:10011000A5D4E80000E87648170000E40B5402007C
:1001200000CA9A3B000000E1F505000080969800A7
:10013000000040420F000000A086010000001027D0
:1001400000000000E8030000000064000000000060
:100150000A00000000000100000000002C76D88892
:10016000DC674F0823DFC1DFAE59E1B1B796E5E3A5
:10017000E453C63AE651997696E8E6C28426EB89BE
:100180008C9B62ED407C6FFCEFBC9C9F40F2BAA55B
:100190006FA5F490055A2AF75C936B6CF9676DC1F3
:1001A0001BFCE0E40D47FEF520E6B500D0ED902EF7
:1001B0000300943577050080841E080000204E0A55
:1001C000000000C80C333333330F986E1283114193
:1001D000EF8D2114893BE65516CFFEE6DB18D1845E
:1001E0004B381BF77C1D901DA4BBE4242032847285
:1001F0005E228100C9F124ECA1E53D2711241FBE38
:10020000CFEFD1E2DEBFCDBF00E00CBF13E0A0E036
:10021000B2E0E0E2F9E200E00BBF02C007900D920D
:10022000A038B107D9F723E0A0E8B3E001C01D92E0
:10023000A73EB207E1F70E94100B0C948E14E0CE9B
:100240002F923F924F925F926F927F928F929F92E6
:10025000AF92BF92CF92DF92EF92FF920F931F93D4
:10026000CF93DF93CDB7DEB72A970FB6F894DEBFF2
:100270000FBECDBF1C013B01E0E0F2E08081918127
:10028000B101681B790B072E000C880B990B0E949B
:10029000C70D6B017C018091020290910302B301B2
:1002A000681B790B072E000C880B990B0E94C70D59
:1002B0004B015C019B01AC010E947B0E69837A8338
:1002C0008B839C83A5019401C501B4010E947B0E20
:1002D0004B015C01A7019601C701B6010E947B0E8C
:1002E0009B01AC01C501B4010E94C40C0E94E20E46
:1002F0006D837E83482E592E80E092E001E010E06D
:100300001F8218869A878987E985FA858481958175
:10031000B101681B790B072E000C880B990B0E940A
:10032000C70D6B017C01E985FA8586819781B30150
:10033000681B790B072E000C880B990B0E94C70DC8
:100340004B015C019B01AC010E947B0E69837A83A7
:100350008B839C83A5019401C501B4010E947B0E8F
:100360004B015C01A7019601C701B6010E947B0EFB
:100370009B01AC01C501B4010E94C40C0E94E20EB5
:10038000C62ED72EE82EF92E2D813E81442D552DD7
:100390000E94280D882334F4CD82DE824E2C5F2CFF
:1003A0000F8318870F5F1F4F89859A8504969A8758
:1003B00089870930110509F0A7CF8F8198852A9682
:1003C0000FB6F894DEBF0FBECDBFDF91CF911F9166
:1003D0000F91FF90EF90DF90CF90BF90AF909F90E4
:1003E0008F907F906F905F904F903F902F900895E7
:1003F0008093C600E0ECF0E0808186FFFDCFE0EC6A
:10040000F0E08081806480836093C600808186FFF5
:10041000FDCFE0ECF0E080818064808308958093DC
:10042000C600E0ECF0E0808186FFFDCFE0ECF0E07C
:100430008081806480836093C600808186FFFDCFC9
:10044000E0ECF0E08081806480834093C60080818E
:1004500086FFFDCFE0ECF0E080818064808308952A
:1004600095E59093C600E0ECF0E0908196FFFDCF1B
:10047000E0ECF0E09081906490839DE49093C6005E
:10048000908196FFFDCFE0ECF0E090819064908346
:100490008093C600808186FFFDCFE0ECF0E0808194
:1004A0008064808308951092C50083E38093C40024
:1004B00088E98093C10086E08093C2000895E2ED50
:1004C000F3E0808190E0982F88272181822B909300
:1004D000B8038093B703E4EEF3E0208130E0322FDD
:1004E00022274181242B3093B6032093B503EFEDEF
:1004F000F3E0408150E0542F44276181462B509314
:10050000B4034093B303EDEDF3E0608170E0762F28
:100510006627E1816E2B7093B2036093B103A9ED5E
:10052000B3E0EC91F0E0FE2FEE271196AC91EA2BB0
:10053000F093B003E093AF03AEECB3E0EC91F0E0E6
:10054000FE2FEE271196AC91EA2BF093AE03E093C9
:10055000AD03841B950B81359105D8F4261B370B11
:1005600021353105B0F48091270290912802892B22
:1005700081F04091BC0369E485E551DF81E090E0C2
:1005800090938F0380938E0310922802109227027B
:1005900067DF8091B7039091B8032091AF0330914A
:1005A000B003821B930B8536910518F58091B50336
:1005B0009091B6032091AD033091AE03821B930B53
:1005C00085369105B0F480918C0390918D03892B31
:1005D00081F04091BC0366E485E521DF10928D0334
:1005E00010928C0381E090E090938B0380938A03B8
:1005F00037CF0895CF93DF9362DFC091B703D091D7
:10060000B8036091B5037091B603CE0119DE9093E3
:10061000AC038093AB03FC01EE0FFF1FEE0FFF1F37
:10062000E050FE4F40815181BA016C1B7D0B9B0154
:1006300022F422273327261B370B3093AA0320935B
:10064000A9035093A4034093A303880F991F880F15
:10065000991FFC01E050FE4F828193819093A20389
:100660008093A103C091B303D091B4036091B1030F
:100670007091B203CE01E4DD9093AC038093AB03A1
:10068000FC01EE0FFF1FEE0FFF1FE050FE4F4081F9
:100690005181BA016C1B7D0B9B0122F42227332769
:1006A000261B370B3093A8032093A7035093A00376
:1006B00040939F03880F991F880F991FFC01E050FA
:1006C000FE4F8281938190939E0380939D03C091FE
:1006D000AF03D091B0036091AD037091AE03CE0132
:1006E000AFDD9093AC038093AB03FC01EE0FFF1FD3
:1006F000EE0FFF1FE050FE4F40815181BA016C1B8D
:100700007D0B9B0122F422273327261B370B3093C6
:10071000A6032093A50350939C0340939B03880F4B
:10072000991F880F991FFC01E050FE4F8281938131
:1007300090939A0380939903DF91CF910895CF927C
:10074000DF92EF92FF920F931F93CF93DF93CDB77A
:10075000DEB72D970FB6F894DEBF0FBECDBF8B016D
:1007600081E090E09093E3038093E203A8DE42DF10
:10077000012B09F48FC1E09129028E2F90E0FC013A
:100780003197E830F10508F085C18827EE58FF4F12
:100790008F4F0C94350F05D68CE492E0DBD580ECBE
:1007A000AFD520919D0330919E038091B503909128
:1007B000B603281B390BC901992324F488279927EC
:1007C000821B930B9F938F938BE592E09F938F9364
:1007D0008E010F5F1F4F1F930F930E94650FC8017B
:1007E000B9D58EE592E0B6D50F900F900F900F908F
:1007F0000F900F904FC1D5D58CE492E0ABD580EC33
:100800007FD520919F033091A0038091B7039091F1
:10081000B803281B390BC901992324F48827992789
:10082000821B930B9F938F938BE592E09F938F9303
:100830008E010F5F1F4F1F930F930E94650FC8011A
:1008400089D58EE592E086D50F900F900F900F908E
:100850000F900F901FC1A5D58CE492E07BD580EC62
:100860004FD52091990330919A038091B5039091CF
:10087000B603281B390BC901992324F4882799272B
:10088000821B930B9F938F938BE592E09F938F93A3
:100890008E010F5F1F4F1F930F930E94650FC801BA
:1008A00059D58EE592E056D50F900F900F900F908E
:1008B0000F900F90EFC075D58CE492E04BD580EC93
:1008C0001FD520919B0330919C038091B703909199
:1008D000B803281B390BC901992324F488279927C9
:1008E000821B930B9F938F938BE592E09F938F9343
:1008F0008E010F5F1F4F1F930F930E94650FC8015A
:1009000029D58EE592E026D50F900F900F900F908D
:100910000F900F90BFC045D58CE492E01BD580ECC2
:10092000EFD42091AF033091B0038091B703909141
:10093000B803281B390BC901992324F48827992768
:10094000821B930B9F938F938BE592E09F938F93E2
:100950008E010F5F1F4F1F930F930E94650FC801F9
:10096000F9D48EE592E0F6D40F900F900F900F908F
:100970000F900F908FC015D58CE492E0EBD480ECF3
:10098000BFD42091AD033091AE038091B503909117
:10099000B603281B390BC901992324F4882799270A
:1009A000821B930B9F938F938BE592E09F938F9382
:1009B0008E010F5F1F4F1F930F930E94650FC80199
:1009C000C9D48EE592E0C6D40F900F900F900F908F
:1009D0000F900F905FC0E5D48CE492E0BBD480EC24
:1009E0008FD42091B3033091B4038091B7039091D9
:1009F000B803281B390BC901992324F488279927A8
:100A0000821B930B9F938F938BE592E09F938F9321
:100A10008E010F5F1F4F1F930F930E94650FC80138
:100A200099D48EE592E096D40F900F900F900F908E
:100A30000F900F902FC0B5D48CE492E08BD480EC53
:100A40005FD42091B1033091B2038091B5039091AE
:100A5000B603281B390BC901992324F48827992749
:100A6000821B930B9F938F938BE592E09F938F93C1
:100A70008E010F5F1F4F1F930F930E94650FC801D8
:100A800069D48EE592E066D40F900F900F900F908E
:100A90000F900F902091B5033091B60380919D0384
:100AA00090919E03821B930B823E4FEF9407A4F11B
:100AB0004F9794F580918E0390918F03892B61F568
:100AC0008091B7039091B8034091B3035091B40360
:100AD000841B950BAC0122F444275527481B590B66
:100AE00042335105CCF087E0809329025AD42091FB
:100AF000B3033091B4038091B7039091B8032817E2
:100B0000390720F480E692E025D403C080E792E024
:100B100021D482E0CAD6C0C08091990390919A03F3
:100B2000821B930B823E4FEF9407A4F14F9794F5ED
:100B300080918C0390918D03892B61F18091B70393
:100B40009091B8034091AF035091B003841B950B73
:100B5000AC0122F444275527481B590B4233510559
:100B6000CCF085E0809329021CD42091AF03309112
:100B7000B0038091B7039091B8032817390720F488
:100B800080E692E0E7D303C080E792E0E3D382E01F
:100B90008CD682C080919B0390919C034091B703B7
:100BA0005091B803841B950B823E4FEF94079CF144
:100BB0008F31910584F580918C0390918D03892B61
:100BC00009F46AC08091AD039091AE03281B390BE4
:100BD000C901992324F488279927821B930BC29774
:100BE0000CF45AC086E080932902DBD32091AD0338
:100BF0003091AE038091B5039091B60382179307AD
:100C000020F480E692E0A6D303C080E792E0A2D36E
:100C100082E04BD641C0AC01992324F444275527E8
:100C2000481B590B42335105BCF180918C039091C4
:100C30008D03892B89F18091AD039091AE03281B20
:100C4000390BC901992324F488279927821B930B18
:100C5000C29714F183E0809329028091250290913C
:100C60002602892BC9F0109226021092250299D3F0
:100C70002091AD033091AE038091B5039091B603FE
:100C80008217930720F480E692E064D303C080E7E4
:100C900092E060D382E009D680918E0390918F0319
:100CA000892BA1F010928F0310928E0344D63CD76B
:100CB0007093BA036093B90374D38FE792E04AD379
:100CC00081E090E0CDDB81E0F0D541C080918A03E6
:100CD00090918B03892B09F43AC010928B031092E8
:100CE0008A03EDDB28D66B017C016091B90370911A
:100CF000BA03072E000C880B990B49D79B01AC0156
:100D0000C701B60140D620E030E04AE754E4A4D65B
:100D10006B017C0146D380E992E01CD3B701A601A8
:100D200080919703909198039BD46B017C0180EC98
:100D3000E7D28E010A5F1F4F22E045E0C701B601EE
:100D40000E943D0F81EA92E005D3C80103D32D969E
:100D50000FB6F894DEBF0FBECDBFDF91CF911F91CC
:100D60000F91FF90EF90DF90CF90089580918203D4
:100D700090918303892BA1F0109283031092820338
:100D800010D38DEA92E0E6D29ADB81E08ED56091B5
:100D9000B1037091B2038091B5039091B603CFCCAB
:100DA00008958091820390918303892B51F0F9D2A9
:100DB0008EEB92E0CFD282E078D5F3D28AEC92E04B
:100DC000C9C208950F931F93CF93DF93CDB7DEB7BA
:100DD00028970FB6F894DEBF0FBECDBF65E485E55A
:100DE00007DB6DDBDED285ED92E0B4D282E05DD52B
:100DF000D8D283EE92E0AED22091AF033091B0030F
:100E00008091B3039091B403281B390BA90122F4FC
:100E100044275527421B530B2091AD033091AE035D
:100E20008091B1039091B203281B390BC90199231A
:100E300024F488279927821B930B840F951F909386
:100E400098038093970340E050E068EC72E408D484
:100E50008E010F5F1F4F22E045E00E943D0FC80149
:100E600079D280EC4DD287EE92E074D201E010E0AE
:100E70001BC084D48093E103813351F44091BC03BF
:100E800061E485E5CCDA10938303009382030CC000
:100E9000823351F486D288EF92E05CD282E005D5AD
:100EA00080D28AEC92E056D28091E1038153823065
:100EB00000F728960FB6F894DEBF0FBECDBFDF91C6
:100EC000CF911F910F9108951F920F920FB60F921D
:100ED00011240BB60F922F933F934F935F936F9311
:100EE0007F938F939F93AF93BF93EF93FF93209143
:100EF000C6008091940390E08730910508F0DBC034
:100F0000FC018827E658FF4F8F4FAFC7233509F004
:100F1000D4C081E080939403D0C0203581F4109236
:100F200089031092880381E090E090939603809368
:100F3000950382E08093940310929303BEC02834FB
:100F400031F483E08093940310929203B6C0253469
:100F500041F484E0809394031092910310929003E3
:100F6000ACC0213421F41092940300DFA6C02E34CB
:100F700021F41092940315DFA0C02D3449F410928F
:100F8000940381E090E0909381038093800395C067
:100F9000293449F41092940381E090E090938D03FA
:100FA00080938C038AC0263479F481E090E090939A
:100FB000890380938803909328028093270290935B
:100FC00026028093250279C01092940376C0809106
:100FD0009303823030F4E82FF0E0EE52FC4F208390
:100FE00005C0E82FF0E0EE51FC4F20838F5F809327
:100FF0009303843008F461C081E090E0909387030C
:10100000809386031092940358C08091920382309B
:1010100030F4E82FF0E0E552FC4F208305C0E82FC4
:10102000F0E0E253FC4F20838F5F80939203843083
:1010300008F443C081E090E090938503809384039B
:10104000109294033AC081E08093BB032093BC03C9
:1010500085E08093940331C080919003823030F416
:10106000E82FF0E0E752FC4F208305C0E82FF0E0C6
:10107000E453FC4F20838F5F809390038430E8F02B
:1010800086E08093940319C080919103823030F4FC
:10109000E82FF0E0E152FC4F208305C0E82FF0E09C
:1010A000E552FC4F20838F5F80939103843028F0BA
:1010B0001092940302C010929403FF91EF91BF919C
:1010C000AF919F918F917F916F915F914F913F91E0
:1010D0002F910F900BBE0F900FBE0F901F90189581
:1010E0007F928F929F92AF92BF92CF92DF92EF92B8
:1010F000FF920F931F93CF93DF93CDB7DEB72A975D
:101100000FB6F894DEBF0FBECDBFCDD90F2EFBEDCD
:10111000AF2EF3E0BF2EF02D0F2EFBE5EF2EF2E009
:10112000FF2EF02D8E010F5F1F4F0F2EF0EDCF2EF3
:10113000F3E0DF2EF02D0F2EFFE47F2EF02D0F2E8B
:10114000FCE48F2EF02D0F2EFEE49F2EF02D8091CB
:10115000BB03882319F01092BB0334DE8091860311
:1011600090918703892BC9F110928703109286030F
:1011700060E585E53DD9A3D980918E0390918F03D9
:10118000892B81F48091880390918903892B51F4F4
:101190006091B1037091B2038091B5039091B60351
:1011A000CEDA1BC08091270290912802892BA9F4E6
:1011B00080918A0390918B03892B79F48091880325
:1011C00090918903892B49F46091AD037091AE032E
:1011D0008091B5039091B603B2DA80918403909127
:1011E0008503892B09F443C0109285031092840370
:1011F00068E485E5FDD880EC83D0F50180811F92FD
:101200008F93FF92EF921F930F935FD6C801A2D0E6
:1012100089E093E09FD0F50181811F928F93FF9227
:10122000EF921F930F9351D6C80194D08BE093E0B7
:1012300091D0F60180811F928F93FF92EF921F93BE
:101240000F9343D6C80186D08BE293E083D0F6019A
:1012500081811F928F93FF92EF921F930F9335D648
:10126000C80178D00FB6F894DEBF0FBECDBF86D2CE
:101270008093E103682F82E090E098D0823091055E
:1012800059F58091E2039091E303892B09F45FCF34
:1012900075D28093E1038433C9F018F4823331F0BE
:1012A00056CF853349F0863359F051CF82E090E034
:1012B000D7D8909224024BCF81E090E0D1D847CF8D
:1012C00083E090E0CDD88092240241CF84E090E08A
:1012D000C7D8709224023BCF2A960FB6F894DEBF8F
:1012E0000FBECDBFDF91CF911F910F91FF90EF9077
:1012F000DF90CF90BF90AF909F908F907F90089598
:1013000082B98A9889988B9A81E0ABD28B9883E0D6
:10131000BAC2089582B98A9A89988B9A81E0A1D23B
:101320008B9881E0B0C208958FEF80BB81B9849A19
:101330008C9A84E1A8D288E3E3DF8CE0E1DF86E0E9
:10134000DFDF81E0DDDF80E8DBCF08958C9888E087
:10135000D7CF0895CF93DF93EC018881882329F0BC
:101360002196D8DF89918111FCCFDF91CF9108952B
:10137000CF93DF93EA01811107C0603168F4862FB3
:101380008F708068BDDF08C0813031F4603120F497
:10139000862F8F70806CB4DFCE01DCDFDF91CF91C0
:1013A000089581E0ADDF80E8ABCF0895CF93DF9360
:1013B0006A3209F03DC0C92FD82F20E030E0A901E2
:1013C0006091BD037091BE038091BF039091C003F3
:1013D0003FD3811109C0AFD26093BD037093BE03A8
:1013E0008093BF039093C003A6D22091BD03309198
:1013F000BE034091BF035091C003C5D220E030E04E
:101400004AE755E474D48823E4F0CBDF8FE093E01F
:10141000A1DF82E04AD2C5DF99DF1092BD031092AE
:10142000BE031092BF031092C00380E090E00BC097
:101430001092BD031092BE031092BF031092C0031E
:1014400002C08D2F9C2FDF91CF9108958091E603EC
:101450008332C1F520E030E0A9016091C3037091AF
:10146000C4038091C5039091C603F2D2811109C0D3
:1014700062D26093C3037093C4038093C5039093B7
:10148000C60359D22091C3033091C4034091C503D0
:101490005091C60378D220E030E84BE355E427D4DE
:1014A0008823C4F081E090E09093C9038093C8033F
:1014B0003BDF1092C3031092C4031092C503109235
:1014C000C60308951092C3031092C4031092C5037B
:1014D0001092C6030895CF93DF9380912A02882348
:1014E00021F05FDF8DE193E035DF8091C1039091C2
:1014F000C203181619067CF4C0E0D0E04DE253E0B8
:101500006C2F81E035DF21968091C1039091C20359
:10151000C817D9079CF32091E603263691F02332B1
:1015200081F02A3271F0843091055CF4FC01EB5CAF
:10153000FD4F208301969093C2038093C10384E6FC
:10154000A2D18091C1039091C20304970CF465C0AD
:1015500028DF60E372E085E392E0AED4892B21F4CA
:1015600081E08093C70328C06BE272E085E392E0DC
:10157000A3D4892B21F482E08093C7031DC011DF1F
:101580008FE293E0E7DE82E090D10BDF8FE393E020
:10159000E1DE82E08AD105DF81E080932A021092A9
:1015A000C2031092C103E5E3F2E086E48083818305
:1015B00082838383148231C0F4DE8FE493E0CADE39
:1015C00082E073D1EEDE8DE593E0C4DE82E06DD182
:1015D000E8DE8091C703813021F48AE693E0BADE29
:1015E00005C0823019F485E793E0B4DE81E05DD177
:1015F00081E080932A021092C2031092C103E5E3B6
:10160000F2E086E48083818382838383148282E094
:1016100090E09093C9038093C803DF91CF91089520
:1016200069D058D1ABD08093E603682F8091C8036E
:101630009091C903BBDE9093C9038093C8038130A6
:10164000910531F018F0029729F0ECCFFFDEEACFD8
:1016500042DFE8CF45DD9093C9038093C803E2CF12
:101660008F929F92AF92BF92CF92DF92EF92FF92B2
:101670004A015B01BC01990F880B990B88D22DECB4
:101680003CEC4CEC5EE337D320E030E04AE754E436
:10169000E3D120E030E040E050E476D16B017C0102
:1016A00020E030E0A901C501B40121D3882394F0E2
:1016B00020E030E044E353E4C501B401C9D18823FC
:1016C0004CF420E030E040EC5FE3C701B6015CD1B0
:1016D0006B017C01C701B601FF90EF90DF90CF90C6
:1016E000BF90AF909F908F900895A89BFECF16BC9F
:1016F000A89A089514BC84E085BD16BCE7E0F1E02B
:1017000080818F70808380818F608083E8E0F1E04A
:1017100080818F608083E6E0F1E080818F6080834C
:101720000895FF920F931F93CF93DF938C5F91E007
:10173000F92E01C0FF0C8A95EAF7D0E0C0E006E080
:1017400011E0D3DFF80190819F21D91302C0CF5F50
:1017500001C0C0E0D92F2C2F30E040913A025091C7
:101760003B022417350769F781E0911101C080E041
:10177000DF91CF911F910F91FF900895AF92BF928B
:10178000CF92DF92EF92FF920F931F93CF93DF934D
:10179000CDB7DEB760970FB6F894DEBF0FBECDBFF2
:1017A00080E1ECE3F2E0DE01119601900D928A9562
:1017B000E1F7E12CF12C6894CC24C3F8DD24D39418
:1017C000AA24A394B12CF60180818F60808390813C
:1017D00095010E2C02C0220F331F0A94E2F7822FCC
:1017E00080958923808300E010E0802F9ADF8111AB
:1017F0000FC0EE0CFF1CEE0CFF1C81E090E08C0F84
:101800009D1FE80EF91EF701E00FF11F80810DC04A
:101810000F5F1F4F0330110541F79FEFE91AF90AD7
:10182000E4E0EE16F10479F686E660960FB6F894D9
:10183000DEBF0FBECDBFDF91CF911F910F91FF9003
:10184000EF90DF90CF90BF90AF90089510928000FE
:1018500080938100109285001092840082E086BB04
:101860000895CF93C82F8AE0F1DF8C2F90E0880F86
:10187000991F9093890080938800B19BFECF82E0EE
:1018800086BBCF910895CF93C82F8CE0DFDF2FE385
:10189000C29FC00111249093890080938800B19B5E
:1018A000FECF82E086BBCF910895CF93C82F8DE005
:1018B000CDDF29E03DE3C29FC001C39F900D1124FD
:1018C0009093890080938800B19BFECF82E086BB15
:1018D000CF9108951092B00086E08093B1001092ED
:1018E000B20081E080937000789408951F920F9267
:1018F0000FB60F9211248F939F93AF93BF93809154
:10190000CA039091CB03A091CC03B091CD03019673
:10191000A11DB11D8093CA039093CB03A093CC0368
:10192000B093CD03BF91AF919F918F910F900FBE58
:101930000F901F9018953FB7F8948091CA0390912B
:10194000CB03A091CC03B091CD032091B2003FBF57
:10195000BA2FA92F982F8827BC01CD01620F711DC6
:10196000811D911D12D120E030E040E853E4C3D145
:1019700020E030E04AE754E4BED120E034E244E71E
:101980005BE46AC008955058BB27AA270ED075C1E2
:1019900066D130F06BD120F031F49F3F11F41EF48A
:1019A0005BC10EF4E095E7FB51C1E92F77D180F3DD
:1019B000BA17620773078407950718F071F49EF54C
:1019C0008FC10EF4E0950B2EBA2FA02D0B01B9019B
:1019D00090010C01CA01A0011124FF27591B99F0A5
:1019E000593F50F4503E68F11A16F040A22F232FB1
:1019F000342F4427585FF3CF469537952795A79501
:101A0000F0405395C9F77EF41F16BA0B620B730BA7
:101A1000840BBAF09150A1F0FF0FBB1F661F771F18
:101A2000881FC2F70EC0BA0F621F731F841F48F4CD
:101A3000879577956795B795F7959E3F08F0B3CF53
:101A40009395880F08F09927EE0F9795879508953D
:101A5000D9D008F481E008950CD00FC107D140F02F
:101A6000FED030F021F45F3F19F0F0C0511139C1C0
:101A7000F3C014D198F39923C9F35523B1F3951BFF
:101A8000550BBB27AA2762177307840738F09F5F9F
:101A90005F4F220F331F441FAA1FA9F333D00E2E0E
:101AA0003AF0E0E830D091505040E695001CCAF77B
:101AB00029D0FE2F27D0660F771F881FBB1F261740
:101AC00037074807AB07B0E809F0BB0B802DBF0113
:101AD000FF2793585F4F2AF09E3F510568F0B6C02C
:101AE00000C15F3FECF3983EDCF3869577956795F0
:101AF000B795F7959F5FC9F7880F911D96958795C4
:101B000097F90895E1E0660F771F881FBB1F6217E2
:101B100073078407BA0720F0621B730B840BBA0BA0
:101B2000EE1F88F7E095089504D06894B111D9C0EC
:101B30000895BCD088F09F5790F0B92F9927B751DE
:101B4000A0F0D1F0660F771F881F991F1AF0BA9581
:101B5000C9F712C0B13081F0C3D0B1E00895C0C060
:101B6000672F782F8827B85F39F0B93FCCF3869577
:101B700077956795B395D9F73EF4909580957095D4
:101B800061957F4F8F4F9F4F0895E89409C097FB51
:101B90003EF490958095709561957F4F8F4F9F4F44
:101BA0009923A9F0F92F96E9BB279395F695879588
:101BB00077956795B795F111F8CFFAF4BB0F11F44B
:101BC00060FF1BC06F5F7F4F8F4F9F4F16C08823F2
:101BD00011F096E911C0772321F09EE8872F762F28
:101BE00005C0662371F096E8862F70E060E02AF069
:101BF0009A95660F771F881FDAF7880F9695879555
:101C000097F90895990F0008550FAA0BE0E8FEEF29
:101C100016161706E807F907C0F012161306E407B0
:101C2000F50798F0621B730B840B950B39F40A26A9
:101C300061F0232B242B252B21F408950A2609F487
:101C4000A140A6958FEF811D811D089597F99F678B
:101C500080E870E060E008959FEF80EC0895002434
:101C60000A941616170618060906089500240A9401
:101C700012161306140605060895092E0394000C87
:101C800011F4882352F0BB0F40F4BF2B11F460FF16
:101C900004C06F5F7F4F8F4F9F4F089557FD90583F
:101CA000440F551F59F05F3F71F04795880F97FB20
:101CB000991F61F09F3F79F08795089512161306DA
:101CC0001406551FF2CF4695F1DF08C01616170609
:101CD0001806991FF1CF869571056105089408953E
:101CE000E894BB2766277727CB0197F908958ADF09
:101CF00008F48FEF08950BD0C0CFB1DF28F0B6DF26
:101D000018F0952309F0A2CFA7CF1124EACFC6DFA0
:101D1000A0F3959FD1F3950F50E0551F629FF001FE
:101D2000729FBB27F00DB11D639FAA27F00DB11D57
:101D3000AA1F649F6627B00DA11D661F829F2227E0
:101D4000B00DA11D621F739FB00DA11D621F839F67
:101D5000A00D611D221F749F3327A00D611D231F3D
:101D6000849F600D211D822F762F6A2F11249F578B
:101D700050408AF0E1F088234AF0EE0FFF1FBB1FAE
:101D8000661F771F881F91505040A9F79E3F51054D
:101D900070F05CCFA6CF5F3FECF3983EDCF3869506
:101DA00077956795B795F795E7959F5FC1F7FE2BF8
:101DB000880F911D9695879597F9089511F40EF463
:101DC0004BCF3EC073DFD0F39923D9F3CEF39F57A7
:101DD000550B87FF43D00024A0E640EA90018058CD
:101DE0005695979528F4805C660F771F881F20F022
:101DF00026173707480730F4621B730B840B202922
:101E000031294A2BA69517940794202531254A2776
:101E100058F7660F771F881F20F0261737074807E7
:101E200030F4620B730B840B200D311D411DA09506
:101E300081F7B901842F9158880F96958795089559
:101E40009F3F31F0915020F4879577956795B7952E
:101E5000880F911D9695879597F908959150504058
:101E6000660F771F881FD2F70895EE0FFF1F881F98
:101E70008BBF0790F691E02D1994EF920F931F936B
:101E8000CF93DF93E80147FD02C034E001C034E1A5
:101E9000042E000C550B57FF03C051954195510975
:101EA000E32E022F242FAE013BD2CE01DF91CF9142
:101EB0001F910F91EF900895FB01DC018D9101902E
:101EC00080190110D9F3990B08950F931F93CF93A5
:101ED000DF93CDB7DEB72E970FB6F894DEBF0FBEF7
:101EE000CDBF0E891F8986E08C831A8309838FEF0B
:101EF0009FE79E838D83AE01465E5F4F688D798D2F
:101F0000CE01019610D0EF81F885E00FF11F10820D
:101F10002E960FB6F894DEBF0FBECDBFDF91CF91E6
:101F20001F910F9108952F923F924F925F926F925F
:101F30007F928F929F92AF92BF92CF92DF92EF9259
:101F4000FF920F931F93CF93DF93CDB7DEB72B97FD
:101F50000FB6F894DEBF0FBECDBF6C017B018A01C6
:101F6000FC0117821682838181FFBFC1CE010196D9
:101F70003C01F6019381F70193FD859193FF8191D7
:101F80007F01882309F4ADC1853239F493FD859131
:101F900093FF81917F01853221F4B60190E024D432
:101FA000E8CF912C212C312CFFE1F315D8F08B32A6
:101FB00079F038F4803279F08332A1F4232D206156
:101FC0001DC08D3261F0803369F4232D216016C06D
:101FD000832D8260382EE32DE4603E2E2AC0F32D3F
:101FE000F8601DC037FC2DC020ED280F2A3040F0CE
:101FF0008E32B9F436FC75C1232D2064322E19C0FF
:1020000036FE06C08AE0989E200D1124922E11C043
:10201000EAE02E9E200D1124222EF32DF0623F2E99
:1020200008C08C3621F4832D8068382E02C0883693
:1020300041F4F70193FD859193FF81917F01811117
:10204000B3CF982F9F7D9554933028F40C5F1F4F8A
:102050009FE399830DC0833631F0833771F0833568
:1020600009F055C020C0F801808189830E5F1F4FA1
:1020700088248394912C530112C02801F2E04F0E62
:10208000511CF801A080B18036FE03C0692D70E0BC
:1020900002C06FEF7FEFC5019CD34C018201F32D8D
:1020A000FF773F2E15C0280122E0420E511CF80197
:1020B000A080B18036FE03C0692D70E002C06FEFD2
:1020C0007FEFC5017BD34C01F32DF0683F2E8201D9
:1020D00033FC19C0822D90E088169906A0F4B60151
:1020E00080E290E081D32A94F5CFF50137FC859109
:1020F00037FE81915F01B60190E076D321102A94DA
:1021000021E0821A91088114910479F7E1C08436A4
:1021100011F0893639F5F80137FE07C06081718109
:10212000828193810C5F1F4F08C060817181072EEF
:10213000000C880B990B0E5F1F4FF32DFF763F2E7F
:1021400097FF09C090958095709561957F4F8F4F4F
:102150009F4FF0683F2E2AE030E0A30181D3882E04
:10216000861844C0853731F4232D2F7EB22E2AE005
:1021700030E025C0932D997FB92E8F36C1F018F429
:10218000883579F0AEC0803719F0883721F0A9C0C2
:10219000E92FE061BE2EB4FE0DC0FB2DF460BF2E12
:1021A00009C034FE0AC0292F2660B22E06C028E0DE
:1021B00030E005C020E130E002C020E132E0F8016B
:1021C000B7FE07C060817181828193810C5F1F4FD0
:1021D00006C06081718180E090E00E5F1F4FA30117
:1021E0003FD3882E8618FB2DFF773F2E36FE0DC07D
:1021F000232D2E7FA22E891458F434FE0BC032FCFE
:1022000009C0832D8E7EA82E05C0B82CA32C03C038
:10221000B82C01C0B92CA4FE0FC0FE01E80DF11DC1
:102220008081803321F49A2D997EA92E09C0A2FEC7
:1022300006C0B394B39404C08A2D867809F0B39491
:10224000A3FC10C0A0FE06C0B21480F4280C922C8F
:102250009B180DC0B21458F4B60180E290E0C4D2CD
:10226000B394F8CFB21418F42B1802C0982C212C78
:10227000A4FE0FC0B60180E390E0B6D2A2FE16C065
:10228000A1FC03C088E790E002C088E590E0B601B9
:102290000CC08A2D867851F0A1FE02C08BE201C0ED
:1022A00080E2A7FC8DE2B60190E09ED2891430F462
:1022B000B60180E390E098D29A94F8CF8A94F30123
:1022C000E80DF11D8081B60190E08ED28110F6CF2D
:1022D000222009F44ECEB60180E290E085D22A9405
:1022E000F7CFF6018681978102C08FEF9FEF2B9683
:1022F0000FB6F894DEBF0FBECDBFDF91CF911F9117
:102300000F91FF90EF90DF90CF90BF90AF909F9094
:102310008F907F906F905F904F903F902F90089597
:102320008F929F92AF92BF92CF92DF92EF92FF92E5
:102330000F931F93CF93DF93CDB7DEB729970FB6D7
:10234000F894DEBF0FBECDBF6A01122FB02E2BE373
:10235000201720F0FF24F394F00E02C02CE3F22E9D
:102360000F2D27E0AE014F5F5F4F50D1BC01498177
:10237000842F8970813031F0E1FC06C0E0FE06C098
:1023800090E205C09DE203C09BE201C090E05E2D9B
:10239000507143FF3CC0911102C083E001C084E052
:1023A000811718F4212F281B01C020E051110BC008
:1023B000F601822F30E2882319F031938150FBCF50
:1023C000C20ED11C20E0992329F0D6019C93F6017E
:1023D00031966F01C6010396E2FE0AC03EE4D601C3
:1023E0003C9341E411964C93119712963C9306C08E
:1023F0003EE6F601308341E641833283FC01322F11
:1024000040E2332309F442C041933150FACF42FFF6
:1024100044C0911102C083E001C084E0811718F428
:10242000212F281B01C020E051110BC0F601822F83
:1024300030E2882319F031938150FBCFC20ED11CBA
:1024400020E0992329F0D6019C93F60131966F0183
:10245000C6010396E2FE0BC039E4D6013C933EE48C
:1024600011963C93119736E412963C9307C039E6D7
:10247000F60130833EE6318336E63283FC01322FAB
:1024800040E2332319F041933150FBCFFC01E20FBE
:10249000F11D10828EEF9FEFA6C021E030E0911178
:1024A00002C020E030E0161617061CF4FB0131963E
:1024B00002C0E1E0F0E02E0F3F1FBB2021F0EB2D2A
:1024C000F0E0319602C0E0E0F0E02E0F3F1FE12F78
:1024D000F0E02E173F071CF4121B212F01C020E053
:1024E0008E2D887159F4F601822F30E2882319F07D
:1024F00031938150FBCFC20ED11C20E0992329F0EB
:10250000D6019C93F60131966F0151110BC0F60173
:10251000822F90E3882319F091938150FBCFC20E54
:10252000D11C20E00F2D060F9A81342F307144FF0B
:1025300003C0913309F40150101624F4093018F047
:1025400008E001C001E0AB0177FF02C040E050E0CD
:10255000FB01E41BF50BA1E0B0E0AC0FBD1FEA0FDF
:10256000FB1F8EE2A82E4B01801A91080B2D10E064
:102570001195019511094F3FBFEF5B0721F4D6017B
:10258000AC9211966D01641775072CF084169506B0
:1025900014F4818101C080E3415051093196D60184
:1025A00011967D014017510724F0D6018C936701E5
:1025B000E2CF6417750739F4963320F4953319F494
:1025C000311101C081E3F6018083F701822F90E28F
:1025D000882319F091938150FBCFF701E20FF11D91
:1025E000108280E090E029960FB6F894DEBF0FBE0F
:1025F000CDBFDF91CF911F910F91FF90EF90DF90B2
:10260000CF90BF90AF909F908F900895283008F0A2
:1026100027E03327DA01990F311D87FD916000967D
:102620006105710539F432602E5F3D9330E32A95E0
:10263000E1F708959F3F30F080387105610509F09A
:102640003C5F3C5F3D93913008F08068911DDF93C3
:10265000CF931F930F93FF92EF92192F987F969528
:10266000E92F96959695E90FFF27E45AFE4F992793
:102670003327EE24FF24A701E7010590089407946F
:1026800028F4360FE71EF81E491F511D660F771FED
:10269000881F991F0694A1F70590079428F4E70E68
:1026A000F81E491F561FC11D770F881F991F661FEF
:1026B0000694A1F70590079428F4F80E491F561FB9
:1026C000C71FD11D880F991F661F771F0694A1F79A
:1026D0000590079420F4490F561FC71FD81F990F64
:1026E000661F771F881F0694A9F7849110951770AD
:1026F00041F0D695C79557954795F794E7941A9565
:10270000C1F7E2E0F1E0689415901591359165917B
:10271000959105907FE27395E118F10A430B560BF2
:10272000C90BD009C0F7E10CF11E431F561FC91F8A
:10273000D01D7EF4703311F48A95E6CFE8940150F1
:1027400030F0080F0AF40027021708F4202F239511
:10275000022F7A3328F079E37D932A95E9F710C0A8
:102760007D932A9589F606949795679537951795E1
:102770001794E118F10A430B560BC90BD00998F0D6
:1027800023957E9173957A3308F070E37C93201340
:10279000B8F77E9170617D9330F0839571E37D93FE
:1027A00070E32A95E1F71124EF90FF900F911F91AC
:1027B000CF91DF91992787FD90950895FC010590B1
:1027C000615070400110D8F7809590958E0F9F1F33
:1027D0000895FC016150704001900110D8F7809578
:1027E00090958E0F9F1F08950F931F93CF93DF93A4
:1027F000FB01238121FD03C08FEF9FEF2CC022FF3F
:1028000016C046815781248135814217530744F40D
:10281000A081B1819D012F5F3F4F318320838C9335
:10282000268137812F5F3F4F3783268314C08B016A
:10283000EC01FB010084F185E02D1995892BE1F66F
:10284000D80116968D919C911797019617969C9397
:102850008E931697CE01DF91CF911F910F9108951E
:10286000FA01AA27283051F1203181F1E8946F93C1
:102870006E7F6E5F7F4F8F4F9F4FAF4FB1E03ED067
:10288000B4E03CD0670F781F891F9A1FA11D680F05
:10289000791F8A1F911DA11D6A0F711D811D911D38
:1028A000A11D20D009F468943F912AE0269F1124AD
:1028B0003019305D3193DEF6CF010895462F477011
:1028C000405D4193B3E00FD0C9F7F6CF462F4F706C
:1028D000405D4A3318F0495D31FD4052419302D0CA
:1028E000A9F7EACFB4E0A695979587957795679570
:1028F000BA95C9F700976105710508959B01AC0170
:102900000A2E06945795479537952795BA95C9F796
:10291000620F731F841F951FA01D0895F894FFCFA9
:102920006C02A802C404A8021C07A8026C0250058D
:10293000C40450051C0750056C02F807C404F807CE
:102940001C07F8074E01000100010138373431003F
:1029500033323538004646464600060031323341B0
:1029600034353642373839432A3023445369676156
:10297000207265746F20706F723A002564006D00DC
:1029800056697265206120657371756572646100B6
:1029900056697265206120646972656974610050CE
:1029A000656469646F20636F6C657461646F210096
:1029B00050656469646F20656E7472656775652122
:1029C00000526563656269646F3A52240052656122
:1029D0006C697A65206120636F6C65746100536572
:1029E0006D207375636573736F0041677561726401
:1029F000652E2E2E004E6F766F2070656469646FB1
:102A00003A200052242000416365697461722031CC
:102A10002D532020322D4E0050656469646F207262
:102A2000656A65697461646F002F0020202000448E
:102A300065736C6967616E646F2E2E2E0044696742
:102A400069746520612073656E68613A002A0041EF
:102A5000636573736F20696E76616C69646F00548F
:102A6000656E7465206E6F76616D656E7465004489
:102A70006573626C6F717565616E646F0055626538
:102A8000722044654C45617473004F7065726164D7
:102A90006F722031004F70657261646F7220320076
:00000001FF
